:10000000F6C0000024C1000022C1000020C1000091
:100010001EC100001CC100001AC1000018C1000070
:1000200016C1000014C1000012C1000010C1000080
:100030000EC10000C4C500000AC1000008C10000D4
:1000400006C1000004C1000002C1000000C10000A0
:10005000FEC00000FCC00000FAC00000ADC60000F9
:10006000F6C0000073C6000048C60000F0C00000E3
:10007000EEC00000ECC00000EAC00000E8C00000D4
:10008000E6C00000E4C00000E2C00000E0C00000E4
:10009000DEC00000DCC00000DAC00000D7C60000EF
:1000A000D6C00000D4C00000D2C00000D0C0000004
:1000B000CEC00000CCC00000CAC00000C8C0000014
:1000C000C6C00000C4C00000C2C00000C0C0000024
:1000D000BEC00000BCC00000BAC00000B8C0000034
:1000E000B6C0000000000A0B02090C0D0E08070341
:1000F00004010000000000000000000000000000FB
:1001000000000000000000000000000000000000EF
:1001100012111000000000000000000000000000AC
:10012000000000000000000000000000210024008A
:1001300027002A002D0030003300010100000401D7
:1001400007010A0101021020200808102040102099
:10015000408002010201080402010102040810208B
:100160004080804020100804020180040201804089
:1001700020100804020108040201010204081020F2
:100180004080010204081020408000002200250069
:1001900028002B002E003100340002010000050170
:1001A00008010B01050505050705080808080202F6
:1001B00002020A0A08080404040401010101010101
:1001C00001010303030303030303040707070C0CE4
:1001D0000C0C0C0C0C0C02020202060606060606AB
:1001E00006060B0B0B0B0B0B0B0B02004908112423
:1001F0001FBECFEFD1E2DEBFCDBF00E00CBF13E0EA
:10020000A0E0B2E0E6E7F9E100E00BBF02C0079032
:100210000D92AC34B107D9F724E0ACE4B3E001C0EF
:100220001D92A03EB207E1F710E0C7EFD0E000E07A
:1002300006C021970109802FFE010E94B10CC63F24
:10024000D10780E00807A9F75DD70C94B90CD8CE88
:10025000982F2091360481E0213208F043C080912C
:1002600012048111FCCF8091350432E030931204E6
:10027000909311049FEF9093100410920F04209319
:100280000E04A5E1B4E0EEEEF3E090E0291331C0F6
:100290001092ED039091ED03880F892B8093ED036D
:1002A0008091EC03813049F51092EC038091ED03CD
:1002B0008093BB008091BC0083FDF8CF85EC8093D8
:1002C000BC00809112048230E1F3809110048F3FD2
:1002D000B1F0809110048032A1F08091100480333D
:1002E00091F084E0109214041092360410921304DA
:1002F00008953D9131939F5FC9CF85EEE0CF80E0B7
:10030000F1CF82E0EFCF83E0EDCF08950895AF9273
:10031000BF92CF92DF92EF92FF920F931F93CF93F2
:10032000DF936C017B018B01040F151FEB015E0154
:10033000AE18BF08C017D10759F06991D601ED91E9
:10034000FC910190F081E02DC6011995892B79F778
:10035000C501DF91CF911F910F91FF90EF90DF903A
:10036000CF90BF90AF900895FC01538D448D252F01
:1003700030E0842F90E0821B930B541710F0CF963F
:10038000089501970895FC01918D828D981761F071
:10039000A28DAE0FBF2FB11D5D968C91928D9F5F88
:1003A0009F73928F90E008958FEF9FEF0895FC0167
:1003B000918D828D981731F0828DE80FF11D858D1A
:1003C00090E008958FEF9FEF0895FC01918D228DAD
:1003D000892F90E0805C9F4F821B91098F73992732
:1003E000089587E394E0F1DF21E0892B09F420E010
:1003F000822F0895FC01A48DA80FB92FB11DA35A17
:10040000BF4F2C91848D90E001968F739927848F34
:10041000A689B7892C93A089B1898C918370806457
:100420008C93938D848D981306C00288F389E02DF8
:1004300080818F7D80830895EF92FF920F931F93A9
:10044000CF93DF93EC0181E0888F9B8D8C8D981387
:100450001AC0E889F989808185FF15C09FB7F89493
:10046000EE89FF896083E889F989808183708064DF
:1004700080839FBF81E090E0DF91CF911F910F912A
:10048000FF90EF900895F62E0B8D10E00F5F1F4F39
:100490000F731127E02E8C8D8E110BC00FB607FC49
:1004A000FACFE889F989808185FFF5CFCE01A2DFF7
:1004B000F2CFEB8DEC0FFD2FF11DE35AFF4FF082D1
:1004C0009FB7F8940B8FEA89FB8980818062D0CF37
:1004D000CF93DF93EC01888D8823B1F0AA89BB8983
:1004E000E889F9898C9185FD03C0808186FD0CC067
:1004F0000FB607FCF7CF8C9185FFF2CF808185FF87
:10050000EDCFCE0177DFEACFDF91CF91089580E084
:1005100090E0892B21F065DF81110E94000080E0CE
:1005200090E0892B49F080E090E0892B29F00E942F
:10053000000081110E94000080E090E0892B49F0CA
:1005400080E090E0892B29F00E94000081110E9438
:10055000000080E090E0892B49F080E090E0892B5A
:1005600029F00E94000081110C9400000895282FAA
:1005700030E0F901EC51FF4F9491F901EC5BFE4F33
:1005800044912C553E4FF9012491222309F435C0A2
:10059000992311F191509231F8F4E92FF0E0882776
:1005A000EB52FD4F8F4F0C94B10C06030A03E70288
:1005B000FE020203EC020D03130317031D032103C4
:1005C00025032B032F03EC02330339033D038091F2
:1005D00080008F7780938000E22FF0E0EE0FFF1F06
:1005E000E657FE4FA591B4918FB7F894EC91611145
:1005F00048C040954E234C938FBF08958091800052
:100600008F7DE8CF80918000877FE4CF84B58F779E
:1006100084BDE2CF84B58F7DFBCF8091B0008F7712
:100620008093B000D9CF8091B0008F7DF9CF8091B9
:1006300090008F7780939000CFCF809190008F7D36
:10064000F9CF80919000877FF5CF8091A0008F77C0
:100650008093A000C1CF8091A0008F7DF9CF8091C1
:10066000A000877FF5CF809120018F7780932001B4
:10067000B3CF809120018F7DF9CF80912001877FBA
:10068000F5CF4E2BB8CFCF93DF9390E0FC01EC5B1E
:10069000FE4F24918C559E4FFC0184918823D1F00C
:1006A00090E0880F991FFC01E65DFE4FA591B49183
:1006B000FC01E657FE4FC591D49161110EC09FB762
:1006C000F8948C91E22FE0958E238C932881E2237D
:1006D000E8839FBFDF91CF9108958FB7F894EC9195
:1006E000E22BEC938FBFF6CF3FB7F8948091B40321
:1006F0009091B503A091B603B091B70326B5A89B1E
:1007000005C02F3F19F00196A11DB11D3FBFBA2FA3
:10071000A92F982F8827BC01CD01620F711D811D63
:10072000911D42E0660F771F881F991F4A95D1F7E8
:1007300008958F929F92AF92BF92CF92DF92EF92E5
:10074000FF924B015C01D0DF6B017C01CDDF6C19A6
:100750007D098E099F09683E734081059105B0F3BC
:1007600021E0821A9108A108B10888EEC80E83E042
:10077000D81EE11CF11C81149104A104B10431F7CD
:10078000FF90EF90DF90CF90BF90AF909F908F90B1
:10079000089585ED8093BC008091BC0084FDFCCF62
:1007A00010921204089520918C03260F3327331FD3
:1007B00021323105ECF420911204FC0190E080E03C
:1007C000243069F082E00895A0918C032191AC015E
:1007D00044595C4FA40FB52FB11D2C930196861779
:1007E00098F380918C03680F60938C0380E00895E8
:1007F00081E008950895E091BD038091BC03E8175E
:1008000030F4F0E0E45BFC4F808190E008958FEFDE
:100810009FEF08959091BD038091BC032FEF3FEFB0
:10082000981748F4E92FF0E0E45BFC4F208130E0BA
:100830009F5F9093BD03C90108958091BC0390917F
:10084000BD03891B990B0895CF92DF92EF92FF921F
:100850000F931F93CF93DF937C01CB018A012091EB
:100860001304222389F0EB016B01C40ED51ECC15B5
:10087000DD0561F06991D701ED91FC910190F08166
:10088000E02DC7011995F3CF642F8DDFC801DF91EB
:10089000CF911F910F91FF90EF90DF90CF9008952F
:1008A000CF93DF931F92CDB7DEB7698320911304F6
:1008B0002223F9F020913604203258F021E030E074
:1008C000FC013383228390E080E00F90DF91CF9191
:1008D000089580911404E82FF0E0EB5EFB4F9981BE
:1008E00090838F5F809314048093360481E090E0BE
:1008F000ECCF61E0CE01019656DFF8CF90E080E0CA
:100900000895CF93DF93D82FC62F81E080931304EF
:1009100080E580933504109214041092360460E050
:1009200084ED94E0BDDF6D2F84ED94E0B9DF6C2F92
:1009300084ED94E0B5DF81E08BDC64EF71E080E072
:1009400090E0DF91CF91F5CE8EBD00000DB407FE93
:10095000FDCF8EB50895FC0101900020E9F7319795
:10096000AF01481B590BBC0187E394E0D0CCCF9377
:10097000DF93F1DFEC0185E292E0EDDF8C0F9D1F4C
:10098000DF91CF9108958F929F92AF92BF92CF92B5
:10099000DF92EF92FF920F931F93CF93DF93CDB728
:1009A000DEB7A1970FB6F894DEBF0FBECDBF6C01C6
:1009B000990FEE08FF08F7FE43C06DE287E394E06D
:1009C0003BDD8C0122273327A9012C193D094E0953
:1009D0005F0919A2CE0181967C019AE0892E912CA3
:1009E000A12CB12CCA01B901A501940198D7605D71
:1009F000F70162937F01211531054105510591F7FA
:100A000090E080E0309711F0CF01A5DF080F191FAB
:100A100085E292E0A0DF800F911FA1960FB6F894B7
:100A2000DEBF0FBECDBFDF91CF911F910F91FF9021
:100A3000EF90DF90CF90BF90AF909F908F900895F0
:100A4000A701960119A28E010F5D1F4F8AE0C82EE3
:100A5000D12CE12CF12CCA01B901A70196015FD775
:100A6000605DF80162938F01211531054105510543
:100A700091F7309721F0CF016EDF8C01C9CF10E0E4
:100A800000E0C6CF88E292E072DF84E592E063DFA7
:100A90008091DF039091E00376DF82E692E05BDFF6
:100AA0008091E9039091EA036EDF8DE792E053DFD6
:100AB0008091E7039091E80366DF88E992E04BDFDD
:100AC0008091E5039091E6035EDF84EB92E043DFE3
:100AD0008091E3039091E40356DF80ED92E03BDFE9
:100AE0008091E1039091E2034EDF88E292E03FCFF4
:100AF000CF93C82F81E08093130480E58093350461
:100B0000109214041092360460E084ED94E0C8DE84
:100B10006C2F84ED94E0C4DE81E09ADB61E070E04C
:100B200080E090E006DE809112048111FCCF81E02C
:100B300080931204809311049FEF909310041092FD
:100B40000F0410920E048093ED038091ED03806AF0
:100B50008093ED038091EC03813031F51092EC032A
:100B60008091ED038093BB008091BC0083FDF8CFA2
:100B700085EC8093BC00809112048130E1F3809178
:100B80000F0491E0811102C090910F04AEEEB3E02A
:100B9000ECE4F3E080E0891309C01092BD03809378
:100BA000BC03811107C0FFCF85EEE3CF2D912193C8
:100BB0008F5FF1CF84ED94E02DDECF9108951F92E9
:100BC0000F920FB60F9211240BB60F922F933F93F3
:100BD0004F935F936F937F938F939F93AF93BF9345
:100BE000EF93FF938091D3039091D403A091D50309
:100BF000B091D603892B8A2B8B2BE1F19091C20304
:100C0000E091C303F091C4038081892780838091A0
:100C1000D3039091D403A091D503B091D6031816B5
:100C200019061A061B069CF48091D3039091D403F5
:100C3000A091D503B091D6030197A109B109809382
:100C4000D3039093D403A093D503B093D603FF911D
:100C5000EF91BF91AF919F918F917F916F915F9134
:100C60004F913F912F910F900BBE0F900FBE0F90A1
:100C70001F90189580910002EAEEF1E0E4919FEF59
:100C800090930002E230E1F038F4EE2381F0E1309D
:100C900089F060E06CDCDBCFE43049F110F1E53045
:100CA000C1F7909173009D7F90937300F2CF1092E3
:100CB0006E00EFCF90916F009D7F90936F00E9CF12
:100CC000909170009D7F9093700091E09093B000A0
:100CD0009091B100987F94609093B1001092B3000E
:100CE000D8CF909171009D7F90937100D2CF909159
:100CF00072009D7F90937200CCCF1F920F920FB61F
:100D00000F9211240BB60F922F933F934F935F9343
:100D10006F937F938F939F93AF93BF93EF93FF93C3
:100D200087E394E067DBFF91EF91BF91AF919F91D3
:100D30008F917F916F915F914F913F912F910F9084
:100D40000BBE0F900FBE0F901F9018951F920F9221
:100D50000FB60F9211240BB60F922F938F939F9380
:100D6000EF93FF93E0914704F09148048081E09174
:100D70004D04F0914E0482FD1DC09081809150047D
:100D80008F5F8F7320915104821741F0E0915004DE
:100D9000F0E0E95CFB4F958F80935004FF91EF9159
:100DA0009F918F912F910F900BBE0F900FBE0F90C0
:100DB0001F9018958081F2CF1F920F920FB60F925D
:100DC00011242F933F938F939F93AF93BF93809161
:100DD000B0039091B103A091B203B091B3033091ED
:100DE000AF0323E0230F2D3758F50196A11DB11D48
:100DF0002093AF038093B0039093B103A093B20309
:100E0000B093B3038091B4039091B503A091B6035E
:100E1000B091B7030196A11DB11D8093B4039093C7
:100E2000B503A093B603B093B703BF91AF919F9161
:100E30008F913F912F910F900FBE0F901F9018959B
:100E400026E8230F0296A11DB11DD2CF1F920F924B
:100E50000FB60F9211240BB60F922F933F934F931F
:100E60005F936F937F938F939F93AF93BF93EF9312
:100E7000FF938091B900887F803609F44CC008F058
:100E80003FC0883209F4A8C028F5803109F49CC01D
:100E9000C8F4882309F4FAC0883009F495C0FF919A
:100EA000EF91BF91AF919F918F917F916F915F91E2
:100EB0004F913F912F910F900BBE0F900FBE0F904F
:100EC0001F901895883109F487C0803241F78093CC
:100ED000100414C0803409F49CC040F48033B9F38A
:100EE0008833E9F68093100485ECAFC0803509F4AF
:100EF00084C0883509F495C0883489F64ADCCFCFA0
:100F0000883909F48CC038F5883729F050F48836D0
:100F100011F0803721F683E0809312041092AE0323
:100F200057C0883809F47BC0803919F0803809F03F
:100F3000B6CF8091AE03803208F071C0E091AE036D
:100F400081E08E0F8093AE038091BB00F0E0E2570A
:100F5000FC4F80833DC0803B39F0E0F4803A09F4D7
:100F600079C0883A09F09BCF84E0809312041092F4
:100F70008D0310928C03E091BA03F091BB03199595
:100F800080918C0381110FC081E080938C031092BB
:100F90006C0309C0803C09F4A7CF883C09F4A4CFB6
:100FA000883B09F07CCFE0918D0381E08E0F809328
:100FB0008D03F0E0E459FC4F80818093BB00909159
:100FC0008D0380918C0329C08091ED038093BB0039
:100FD00085EC8093BC0063CF90910F0480910E0448
:100FE000981758F5E0910F0481E08E0F80930F045D
:100FF000F0E0E251FC4F8081E9CFE0910F0481E005
:101000008E0F80930F048091BB00F0E0E251FC4F03
:10101000808390910F0480910E049817C8F285E8A0
:10102000D8CFE0910F0481E08E0F80930F04809160
:10103000BB00F0E0E251FC4F8083809111048111EC
:101040005DCF81E08093EC0384EA8093BC00109232
:10105000120425CF85EC8093BC001092120480917D
:10106000AE03803230F4E091AE03F0E0E257FC4F83
:1010700010826091AE0370E0E091B803F091B90383
:101080008EE893E019951092AE0309CF10921004E8
:1010900035CFE7E3F4E01382128288EE93E0A0E01C
:1010A000B0E084839583A683B78325E032E0318363
:1010B000208325EC30E03587248724EC30E0378727
:1010C000268720EC30E0318B208B21EC30E0338B15
:1010D000228B22EC30E0358B248B26EC30E0378BF2
:1010E000268B118E128E138E148EE4EDF4E0138293
:1010F000128284839583A683B78387E192E09183EC
:1011000080830895789484B5826084BD84B58160BD
:1011100084BD85B5826085BD85B5816085BD8091C2
:101120006E00816080936E0010928100809181003A
:101130008260809381008091810081608093810032
:10114000809180008160809380008091B1008460F4
:101150008093B1008091B00081608093B000809155
:1011600091008260809391008091910081608093D2
:101170009100809190008160809390008091A10007
:1011800082608093A1008091A10081608093A10082
:101190008091A00081608093A000809121018260F5
:1011A00080932101809121018160809321018091B0
:1011B000200181608093200180917A008460809377
:1011C0007A0080917A00826080937A0080917A0020
:1011D000816080937A0080917A00806880937A00A1
:1011E0001092C1001092BD031092BC03109214041F
:1011F000109236041092120481E080931104109230
:10120000EC0361E084E1B3D961E085E1B0D980917C
:10121000B9008E7F8093B9008091B9008D7F809353
:10122000B90088E48093B80085E48093BC0085E829
:1012300091E09093BB038093BA0386E891E090938A
:10124000B9038093B803E0914704F091480482E029
:101250008083E0914304F09144041082E0914504BE
:10126000F09146048FEC808310924F04E0914B0480
:10127000F0914C0486E08083E0914904F0914A04A7
:10128000808180618083E0914904F0914A048081EB
:1012900088608083E0914904F0914A0480818068ED
:1012A0008083E0914904F0914A0480818F7D80839E
:1012B000CFB7F8948091BE03811123C0E9EDF1E02E
:1012C0008491E9E7F1E09491E82FF0E0EE0FFF1F41
:1012D000E65DFE4FA591B491EC91E92319F461E02C
:1012E00085E345D961E085E3CED98CB580618CBDBD
:1012F0008CB580648CBD61E084E3C5D961E083E393
:10130000C2D98091BE038F5F8093BE03CFBF8CB5DF
:101310008C7F81608CBD8DB581608DBD61E083E384
:10132000B2D960E082E3AFD961E084E3ACD961E097
:1013300081E3A9D961E080E3A6D961E08FE2A3D976
:1013400061E08EE2A0D961E087E09DD961E081E3B0
:101350000ED961E080E30BD961E08FE208D961E04A
:101360008EE205D988EE92E002DB60E081E3FFD8EF
:1013700064E670E080E090E0DCD981E0E5DA61E0ED
:1013800070E080E090E0D5D961E081E3F0D868ECCE
:1013900070E080E090E0CDD960E080E3E8D864E6DA
:1013A00070E080E090E0C5D982E0CEDA61E070E0E4
:1013B00080E090E0BED961E080E3D9D868EC70E0CD
:1013C00080E090E0B6D960E08FE2D1D864E670E0CA
:1013D00080E090E0AED983E0B7DA61E070E080E0D1
:1013E00090E0A7D961E08FE2C2D868EC70E080E0BD
:1013F00090E09FD960E08EE2BAD864E670E080E0C9
:1014000090E097D984E0A0DA61E070E080E090E0BD
:1014100090D961E08EE2ABD868EC70E080E090E0BB
:1014200088D981E093E0A3DA80E562DBA82EB12CB5
:10143000B092EA03A092E90381E55ADBC82ED12CD1
:10144000D092E803C092E70382E552DBE82EF12C4C
:10145000F092E603E092E50383E54ADB082F10E013
:101460001093E4030093E30384E542DBC82FD0E04C
:10147000D093E203C093E1038BEA3ADB90E09093D0
:10148000E0038093DF038F3F910521F41092E00386
:101490001092DF038FEFA816B10421F41092EA0333
:1014A0001092E903EFEFCE16D10421F41092E80375
:1014B0001092E703FFEFEF16F10421F41092E60318
:1014C0001092E5030F3F110521F41092E4031092EE
:1014D000E303CF3FD10521F41092E2031092E10320
:1014E00089E193E044DACEDA64E2662E63E0762E98
:1014F00074E1872E912CA12CB12CE1EEEE2EE4E0CC
:10150000FE2EFAEECF2EF1E0DF2EABEA4A2EA1E05E
:101510005A2E0BE411E060E081E329D860E080E31B
:1015200026D860E08FE223D860E08EE220D8862DB6
:101530000BDA9FEC980F953008F0A8C18093EB036D
:1015400087E293E008DA6091EB0387E394E00E947E
:101550001C0285E292E0FFD980910002873019F5E4
:10156000F601C491C7FD72C161E087E08CD8CC233D
:1015700009F4E8C0C23009F0F9C08091B100876079
:101580008093B1008DE48093B3008092D303909256
:10159000D403A092D503B092D603809170008260EC
:1015A0008093700053C18F3F09F050C187E0809352
:1015B0000002F601C4918C2FCF3F09F447C1C2301D
:1015C00009F464C058F4CC2369F1C13009F441C076
:1015D00087FD3CC161E087E056D8CCCFC43009F428
:1015E00094C008F474C0C53099F71092200110928D
:1015F0002101809121018860809321018091210146
:10160000816080932101F2018491E82FF0E0EE0FD8
:10161000FF1FE657FE4F85919491F80184918093C6
:10162000BF03A2CF14BC15BC84B5826084BD85B550
:10163000816085BDF2018491E82FF0E0EE0FFF1F7D
:10164000E657FE4F85919491F80184918093C603EB
:101650008BCF109280001092810080918100886071
:101660008093810080918100816080938100F201EC
:101670008491E82FF0E0EE0FFF1FE657FE4F8591B3
:101680009491F80184918093C5036ECF1092B000BD
:101690001092B1008091B00082608093B000809180
:1016A000B10081608093B100F2018491E82FF0E0F5
:1016B000EE0FFF1FE657FE4F859194919093C40360
:1016C0008093C303F80184918093C2034DCF10929D
:1016D0009000109291008091910088608093910019
:1016E00080919100816080939100F2018491E82FB4
:1016F000F0E0EE0FFF1FE657FE4F85919491F80141
:1017000084918093C103C3E02FCF1092A000109268
:10171000A1008091A10088608093A1008091A10028
:1017200081608093A100F2018491E82FF0E0EE0F38
:10173000FF1FE657FE4F85919491F80184918093A5
:10174000C00312CF85B5887F856085BD8DE487BDD8
:101750008092DB039092DC03A092DD03B092DE0363
:1017600080916E00826080936E0070C0C130C1F4C1
:1017700080918100887F836080938100F09289004E
:10178000E09288008092D7039092D803A092D90368
:10179000B092DA0380916F00826080936F0056C030
:1017A000C330C1F480919100887F83608093910061
:1017B000F0929900E09298008092CF039092D0032B
:1017C000A092D103B092D203809171008260809385
:1017D00071003CC0C430C1F48091A100887F836057
:1017E0008093A100F092A900E092A8008092CB0320
:1017F0009092CC03A092CD03B092CE038091720060
:1018000082608093720022C0C530C1F480912101B2
:10181000887F836080932101F0922901E092280162
:101820008092C7039092C803A092C903B092CA03E2
:101830008091730082608093730008C0C230A1F170
:1018400044F5CC2379F1C13009F498CFC091EB0372
:1018500085E393E08CD8C13349F56091E903709139
:10186000EA036F5F7F4F7093EA036093E90380E5BB
:1018700048D86091DF037091E0036F5F7F4F7093F2
:10188000E0036093DF038BEA3CD8FCD80E94870218
:1018900042CEC43009F4A6CF0CF48ACFC53009F487
:1018A000BBCFD4CF81EE53CF81EE6DCEC23361F486
:1018B0006091E7037091E8036F5F7F4F7093E803D7
:1018C0006093E70381E5D4CFC33361F46091E5030E
:1018D0007091E6036F5F7F4F7093E6036093E503BB
:1018E00082E5C6CFC43361F46091E3037091E403F1
:1018F0006F5F7F4F7093E4036093E30383E5B8CF9A
:10190000C53309F0B6CF6091E1037091E2036F5FD8
:101910007F4F7093E2036093E10384E5A9CFA1E2D6
:101920001A2EAA1BBB1BFD010DC0AA1FBB1FEE1F59
:10193000FF1FA217B307E407F50720F0A21BB30BA4
:10194000E40BF50B661F771F881F991F1A9469F720
:1019500060957095809590959B01AC01BD01CF017C
:101960000895EE0FFF1F881F8BBF0790F691E02DA3
:061970001994F894FFCF6A
:10197600FF000000001C028701B4016802E501C3F4
:1019860001D70100000000500424047E04FA031D60
:10199600040A04FB030D0A003D3D3D3D3D3D3D3D32
:1019A6003D3D3D3D3D3D3D3D3D3D3D3D3D3D3D3D61
:1019B6003D3D3D3D3D3D3D3D3D3D3D3D3D3D3D3D51
:1019C6003D3D3D00416C6C20766F746573202D3E65
:1019D6002000312E44656C6172616D2052616A612E
:1019E600656920766F746573202D3E2000322E4E79
:1019F60069636F6C6520436861726C657320766FEE
:101A0600746573202D3E2000332E41696D69652073
:101A16004C616E63617374657220766F74657320B2
:101A26002D3E2000342E4A61636F62204D6163644F
:101A36006F6E616C6420766F746573202D3E200096
:101A4600352E436F6C696E20526F6D616E20766F16
:101A5600746573202D3E200053656E64696E6720A1
:101A6600536C617665206E756D626572732E2E2ECF
:101A76000052656164696E672066726F6D20454528
:101A860050524F4D202E2E2E0057656C636F6D659C
:101A96002E2E2E004F4B004E657720766F746520F4
:101AA600666F72200057726974696E67206F6E20C8
:0C1AB600454550524F4D202E2E2E0000B2
:00000001FF
