:1000000003C1000031C100002FC100002DC100005C
:100010002BC1000029C1000027C1000025C100003C
:1000200023C1000021C100001FC100001DC100004C
:100030001BC10000A1C5000017C1000015C10000D0
:1000400013C1000011C100000FC100000DC100006C
:100050000BC1000009C1000007C100008AC60000F2
:10006000D2C6000050C6000025C60000FDC000003A
:10007000FBC00000F9C00000F7C00000F5C00000A0
:10008000F3C00000F1C00000EFC00000EDC00000B0
:10009000EBC00000E9C00000E7C00000E5C00000C0
:1000A000E3C00000E1C00000DFC00000DDC00000D0
:1000B000DBC00000D9C00000D7C00000D5C00000E0
:1000C000D3C00000D1C00000CFC00000CDC00000F0
:1000D000CBC00000C9C00000C7C00000C5C0000000
:1000E000C3C00000000020002300260029002C00CF
:1000F0002F00320000010000030106010901000089
:100100000A0B02090C0D0E08070304010000000091
:1001100000000000000000000000000000000000DF
:10012000000000000000000000001211100000009C
:1001300000000000000000000000000000000000BF
:100140000000000000002100240027002A002D00EC
:100150003000330001010000040107010A0101021F
:1001600010202008081020401020408002010201C9
:100170000804020101020408102040808040201081
:1001800008040201800402018040201008040201DA
:100190000804020101020408102040800102040842
:1001A0001020408000002200250028002B002E0097
:1001B0003100340002010000050108010B010505B2
:1001C0000505070508080808020202020A0A0808CD
:1001D00004040404010101010101010103030303FB
:1001E00003030303040707070C0C0C0C0C0C0C0C8A
:1001F0000202020206060606060606060B0B0B0B9B
:100200000B0B0B0B0200300711241FBECFEFD1E206
:10021000DEBFCDBF00E00CBF14E0A0E0B2E0E2EC36
:10022000F6E100E00BBF02C007900D92A232B107C9
:10023000D9F725E0A2E2B4E001C01D92AF35B207C4
:10024000E1F711E0C4E0D1E000E006C02197010928
:10025000802FFE010E94570BC330D10780E00807B2
:10026000A9F78CD60C945F0BCBCE96E0899FD0017A
:100270001124A051BB4F90967C936E935F9791E0B1
:1002800091969C939197E0915D05F0915E05909118
:100290005C05992339F0309751F0811108C08091A5
:1002A0000C051994309719F05C968C91FACF08954B
:1002B000CF92DF92EF92FF920F931F9396E0899F68
:1002C000F0011124E051FB4F11A2278D30A1213004
:1002D000310549F178F02230310509F44FC023305F
:1002E000310509F450C01F910F91FF90EF90DF90FE
:1002F000CF9008956623B9F361E070E0B6DF2FB7C1
:10030000F89480914F0490915004A0915104B091C1
:1003100052042FBF8093480590934905A0934A0546
:10032000B0934B05E0CF9FB7F894C0904F04D090A6
:100330005004E0905104F09052049FBF0091480592
:100340001091490520914A0530914B05C01AD10AF8
:10035000E20AF30A00915A0510915B0530E020E0B3
:100360000C151D052E053F0548F462E070E01F9155
:100370000F91FF90EF90DF90CF9077CF6111B3CFC7
:1003800063E070E0F4CF70E060E0F1CFAF92BF9235
:10039000CF92DF92EF92FF920F931F93CF93DF9351
:1003A0006C017B018B01040F151FEB015E01AE1880
:1003B000BF08C017D10759F06991D601ED91FC91A2
:1003C0000190F081E02DC6011995892B79F7C501BF
:1003D000DF91CF911F910F91FF90EF90DF90CF9021
:1003E000BF90AF900895FC01538D448D252F30E0D0
:1003F000842F90E0821B930B541710F0CF96089532
:1004000001970895FC01918D828D981761F0A28D5E
:10041000AE0FBF2FB11D5D968C91928D9F5F9F7324
:10042000928F90E008958FEF9FEF0895FC01918DDA
:10043000828D981731F0828DE80FF11D858D90E047
:1004400008958FEF9FEF0895FC01918D228D892FE4
:1004500090E0805C9F4F821B91098F7399270895CC
:1004600083E594E0F1DF21E0892B09F420E0822F7D
:100470000895FC01A48DA80FB92FB11DA35ABF4F39
:100480002C91848D90E001968F739927848FA68993
:10049000B7892C93A089B1898C91837080648C93E7
:1004A000938D848D981306C00288F389E02D808196
:1004B0008F7D80830895EF92FF920F931F93CF93C8
:1004C000DF93EC0181E0888F9B8D8C8D98131AC08F
:1004D000E889F989808185FF15C09FB7F894EE8976
:1004E000FF896083E889F9898081837080648083D3
:1004F0009FBF81E090E0DF91CF911F910F91FF901E
:10050000EF900895F62E0B8D10E00F5F1F4F0F73C5
:100510001127E02E8C8D8E110BC00FB607FCFACF81
:10052000E889F989808185FFF5CFCE01A2DFF2CF7E
:10053000EB8DEC0FFD2FF11DE35AFF4FF0829FB7BB
:10054000F8940B8FEA89FB8980818062D0CFCF93AA
:10055000DF93EC01888D8823B1F0AA89BB89E889F3
:10056000F9898C9185FD03C0808186FD0CC00FB692
:1005700007FCF7CF8C9185FFF2CF808185FFEDCF0F
:10058000CE0177DFEACFDF91CF91089580E090E050
:10059000892B21F065DF81110E94000080E090E04E
:1005A000892B49F080E090E0892B29F00E9400001F
:1005B00081110E94000080E090E0892B49F080E0EA
:1005C00090E0892B29F00E94000081110E94000018
:1005D00080E090E0892B49F080E090E0892B29F0C1
:1005E0000E94000081110C94000008958150823116
:1005F00008F05AC0E82FF0E08827EE5FFC4F8F4FDD
:100600000C94570B2203260314031A031E035403EE
:1006100029032F03330339033D03410347034B03EE
:1006200054034F0355035903809180008F778093C3
:1006300080000895809180008F7DF9CF80918000A7
:10064000877FF5CF84B58F7784BD089584B58F7D7E
:10065000FBCF8091B0008F778093B0000895809198
:10066000B0008F7DF9CF809190008F7780939000BC
:100670000895809190008F7DF9CF80919000877FC1
:10068000F5CF8091A0008F778093A000089580918E
:10069000A0008F7DF9CF8091A000877FF5CF80915A
:1006A00020018F77809320010895809120018F7D14
:1006B000F9CF80912001877FF5CFCF93DF93282F4B
:1006C00030E0F901E250FF4F8491F901E25AFE4F08
:1006D000D491F901E254FE4FC491CC2399F08111D9
:1006E00085DFEC2FF0E0EE0FFF1FEC51FF4FA591DF
:1006F000B491EC91ED2381E090E009F480E0DF918A
:10070000CF91089580E090E0FACF862FD6CF1F9347
:10071000CF93DF93282F30E0F901E250FF4F84910F
:10072000F901E25AFE4FD491F901E254FE4FC4910F
:10073000CC23A1F0162F811159DFEC2FF0E0EE0F42
:10074000FF1FEC55FE4FA591B4918FB7F894EC9133
:10075000111108C0D095DE23DC938FBFDF91CF91BC
:100760001F910895DE2BF8CF862F642FD0CFCF9323
:10077000DF9390E0FC01E25AFE4F249182549E4F99
:10078000FC0184918823C9F090E0880F991FFC0137
:10079000EC5BFE4FA591B491FC01EC55FE4FC59169
:1007A000D49161110DC09FB7F8948C91209582234C
:1007B0008C938881282328839FBFDF91CF91089550
:1007C000623051F49FB7F8943C91822F8095832337
:1007D0008C93E8812E2BEFCF8FB7F894EC912E2BD2
:1007E0002C938FBFEACF862F642FC1CF6F927F9259
:1007F0008F929F92AF92BF92CF92DF92EF92FF9231
:100800000F931F93CF93DF9381E080935C058FB7A5
:10081000F89440914F0450915004609151047091AC
:1008200052048FBF80914C0590914D05A0914E05CB
:10083000B0914F05481B590B6A0B7B0B80915805F3
:1008400090915905B0E0A0E084179507A607B70777
:1008500008F016C1C0E080915605C81758F4E09121
:100860005205F0915305EC0FF11D62E080817FDFAE
:10087000CF5FF1CF712C812C912C54018394809106
:100880005705781608F05AC0072D10E0E09154057E
:10089000F0915505E00FF11F61E0808168DFE09184
:1008A0005405F0915505E00FF11F60E080812FDFC6
:1008B000D501C401072C04C0880F991FAA1FBB1FB4
:1008C0000A94D2F76C017C01E094F094612C809141
:1008D00056056816F0F4C62DD0E0E0915205F0916F
:1008E0005305EC0FFD1F8081E8DE2496CC0FDD1F41
:1008F000C051DB4F892B41F4888199818C299D2936
:10090000998388836394E3CF888199818E219F2185
:10091000F7CFE0915405F0915505E00FF11F61E02C
:100920008081F5DE8091540590915505080F191FBF
:1009300060E0F80180811BDF7394A1CFC0EFD4E0A9
:10094000FE018FEF9FEF278D30A1232B21F4148E12
:10095000968F858F11A2369625E0EC32F20799F733
:10096000F12C96E0D92E80915605F81608F04FC06C
:10097000E12C0F2D10E0000F111F08501B4F20918C
:100980005705E21608F041C0F801608171810E2C14
:1009900002C0769567950A94E2F7F29E90011124C1
:1009A0002E0D311DE0EFF4E080E0458D568D2417CB
:1009B000350709F469C08F5F36968A30B1F760FF5A
:1009C00022C0E0EFF4E090E080E0448D411116C0D9
:1009D000E0915005F0915105E20FF31F4081D89E40
:1009E000F001D99EF00D1124E051FB4F448F368F5A
:1009F000258F10A2178E61E05BDC05C0019636964C
:100A00008A30910511F7E394BACFF394ACCF80E02C
:100A100099A19111892F2696F5E0CC32DF07C1F715
:100A20009FB7F89440914F04509150046091510445
:100A3000709152049FBF40934C0550934D056093B5
:100A40004E0570934F058823D9F0809111058823B6
:100A5000B9F080910F0590911005019789F480916C
:100A60000C05DF91CF911F910F91FF90EF90DF90D8
:100A7000CF90BF90AF909F908F907F906F90089590
:100A800010925C0580E0EDCF6170B6CF3FB7F8946F
:100A90008091240490912504A0912604B09127040C
:100AA00026B5A89B05C02F3F19F00196A11DB11DC9
:100AB0003FBFBA2FA92F982F8827BC01CD01620F05
:100AC000711D811D911D42E0660F771F881F991FC0
:100AD0004A95D1F708958F929F92AF92BF92CF928D
:100AE000DF92EF92FF924B015C01D0DF6B017C0142
:100AF000CDDF6C197D098E099F09683E7340810521
:100B00009105B0F321E0821A9108A108B10888EE9E
:100B1000C80E83E0D81EE11CF11C81149104A104CD
:100B2000B10431F7FF90EF90DF90CF90BF90AF907E
:100B30009F908F90089560E08BE0E9DD60E08CE0AD
:100B4000E6DD60E08DE0E3CDFC0101900020E9F7F7
:100B50003197AF01481B590BBC0183E594E016CCDB
:100B6000CF93DF93F1DFEC0180E392E0EDDF8C0FB8
:100B70009D1FDF91CF9108951F920F920FB60F9294
:100B800011240BB60F922F933F934F935F936F9364
:100B90007F938F939F93AF93BF93EF93FF93809136
:100BA0003E0490913F04A0914004B0914104892BF0
:100BB0008A2B8B2BE1F190912D04E0912E04F09182
:100BC0002F0480818927808380913E0490913F0487
:100BD000A0914004B0914104181619061A061B068C
:100BE0009CF480913E0490913F04A0914004B09108
:100BF00041040197A109B10980933E0490933F04F9
:100C0000A0934004B0934104FF91EF91BF91AF9145
:100C10009F918F917F916F915F914F913F912F9114
:100C20000F900BBE0F900FBE0F901F9018958091E4
:100C30000002E4E0F2E0E4919FEF90930002E230E2
:100C4000E1F038F4EE2381F0E13089F060E05FDD1F
:100C5000DBCFE43049F110F1E530C1F7909173003A
:100C60009D7F90937300F2CF10926E00EFCF909122
:100C70006F009D7F90936F00E9CF909170009D7FF2
:100C80009093700091E09093B0009091B100987FA4
:100C900094609093B1001092B300D8CF90917100FE
:100CA0009D7F90937100D2CF909172009D7F909321
:100CB0007200CCCF1F920F920FB60F9211240BB679
:100CC0000F922F933F934F935F936F937F938F93E5
:100CD0009F93AF93BF93EF93FF9383E594E0C9DBBA
:100CE000FF91EF91BF91AF919F918F917F916F9104
:100CF0005F914F913F912F910F900BBE0F900FBEC0
:100D00000F901F9018951F920F920FB60F921124FB
:100D10000BB60F922F938F939F93EF93FF93E091D6
:100D20006304F09164048081E0916904F0916A04A5
:100D300082FD1DC0908180916C048F5F8F73209124
:100D40006D04821741F0E0916C04F0E0ED5AFB4F26
:100D5000958F80936C04FF91EF919F918F912F91CC
:100D60000F900BBE0F900FBE0F901F9018958081B3
:100D7000F2CF1F920F920FB60F9211242F933F9331
:100D80008F939F93AF93BF9380914F0490915004A2
:100D9000A0915104B09152043091230423E0230F19
:100DA0002D3758F50196A11DB11D20932304809382
:100DB0004F0490935004A0935104B0935204809137
:100DC000240490912504A0912604B0912704019653
:100DD000A11DB11D8093240490932504A0932604A3
:100DE000B0932704BF91AF919F918F913F912F9125
:100DF0000F900FBE0F901F90189526E8230F0296B4
:100E0000A11DB11DD2CF1F920F920FB60F921124C8
:100E10008F939F938EB5809322048091220481301A
:100E200061F080912204823041F08091220483306D
:100E300021F080912204843051F48091220490E0CA
:100E400090934D0480934C0481E080934E04109263
:100E500022049F918F910F900FBE0F901F901895B5
:100E6000109256041092550488EE93E0A0E0B0E092
:100E70008093570490935804A0935904B0935A0454
:100E800088E192E0909354048093530485EC90E0C1
:100E90009093600480935F0484EC90E090936204EC
:100EA0008093610480EC90E09093640480936304E9
:100EB00081EC90E0909366048093650482EC90E06E
:100EC000909368048093670486EC90E090936A04A2
:100ED0008093690410926C0410926D0410926E0459
:100EE00010926F041092F2041092F6041092F5041E
:100EF0001092F7048AE292E09093F1048093F00458
:100F0000ECE0F5E01082148213821582369685E0BB
:100F1000E834F807B9F784E092E0909353058093A2
:100F2000520581E092E0909355058093540584E04A
:100F30008093560583E08093570588E092E0909374
:100F40005105809350058AE090E090935905809375
:100F5000580584EF91E090935B0580935A051092B9
:100F60005E0510925D0510924C0510924D05109291
:100F70004E0510924F0510925C050895CF93DF93B4
:100F8000CDB7DEB7A1970FB6F894DEBF0FBECDBFC9
:100F9000789484B5826084BD84B5816084BD85B554
:100FA000826085BD85B5816085BD80916E00816060
:100FB00080936E0010928100809181008260809306
:100FC0008100809181008160809381008091800008
:100FD0008160809380008091B10084608093B10033
:100FE0008091B00081608093B00080919100826018
:100FF0008093910080919100816080939100809115
:1010000090008160809390008091A1008260809325
:10101000A1008091A10081608093A1008091A00037
:1010200081608093A00080912101826080932101E2
:101030008091210181608093210180912001816054
:101040008093200180917A00846080937A0080915F
:101050007A00826080937A0080917A008160809328
:101060007A0080917A00806880937A001092C100A3
:10107000E0916304F091640482E08083E0915F0476
:10108000F09160041082E0916104F09162048FECB1
:10109000808310926B04E0916704F091680486E00D
:1010A0008083E0916504F091660480818061808393
:1010B000E0916504F0916604808188608083E0910E
:1010C0006504F0916604808180688083E091650406
:1010D000F091660480818F7D80831FB7F8948091A2
:1010E0002804811123C0E3EFF1E08491E3E9F1E00A
:1010F0009491E82FF0E0EE0FFF1FEC5BFE4FA591FF
:10110000B491EC91E92319F461E085E300DB61E03F
:1011100085E32DDB8CB580618CBD8CB580648CBD86
:1011200061E084E324DB61E083E321DB8091280438
:101130008F5F809328041FBF8CB58C7F81608CBD2E
:101140008DB581608DBD62E085E311DB60E083E3F6
:101150000EDB61E082E30BDB60E084E308DB61E04F
:101160008BE005DB61E08CE002DB61E08DE0FFDA23
:1011700061E087E0FCDA61E085E3C9DA8CB5806480
:101180008CBD8CB580688CBD64E1C62ED12CE12C61
:10119000F12C71EE672E74E0772EEAE08E2E912C02
:1011A000A12CB12C80914E04882309F4A5C0C3DC86
:1011B00083E392E0C9DC20904C0430904D04032C72
:1011C000000C4408550857FE99C06DE283E594E091
:1011D00072D922273327A901221933094409550955
:1011E00019A28E010F5D1F4FCA01B901A50194011B
:1011F0003CD2605DF80162938F01211531054105F4
:10120000510591F70115110511F0C8019DDC80E32E
:1012100092E09ADC8AE492E0A3DCE8DA8823E9F33E
:1012200080914A0490914B0402970CF017C261E040
:101230008DE06DDA88E692E093DC8BE792E090DC5B
:101240008EE892E08DDC82EA92E08ADC86EB92E026
:1012500087DC86EC92E078DCC9DA182F8823E1F38A
:10126000682F83E594E027D980E392E06DDC63DCAE
:101270008FEC810F61E0853008F055C08BE047DAD4
:1012800089ED92E0113371F089EF92E0123351F061
:1012900089E193E0133331F08BE393E0143311F0E1
:1012A0008CE593E05DDC89E793E05ADC1093290438
:1012B000809129048EBD81E993E052DC68EE73E0F1
:1012C00080E090E008DC80914A0490914B04019604
:1012D00090934B0480934A0486EF93E041DC64EFE3
:1012E00071E080E090E0F7DB0AE010E082E392E05A
:1012F00037DC01501109D1F749D954CFA20191012E
:1013000019A28E010F5D1F4FCA01B901A5019401F9
:10131000ACD1605DF80162938F0121153105410563
:10132000510591F76FCF8CE0F2D98DE993E018DC8D
:1013300080910002873021F5E4E0F2E0149117FD7E
:10134000CBCF61E087E013DA112309F4F6C0123045
:1013500009F007C18091B10087608093B1008DE4EE
:101360008093B300C0923E04D0923F04E0924004C8
:10137000F092410480917000826080937000ACCF45
:101380008F3F09F0A9CF87E080930002E4E0F2E00C
:101390001491812F1F3F09F49FCF123009F46BC0C5
:1013A00058F4112381F1113009F446C087FD94CF20
:1013B00061E087E0DCD9CBCF143009F49FC008F49A
:1013C0007DC0153099F71092200110922101809173
:1013D00021018860809321018091210181608093A7
:1013E0002101E5ECF1E08491E82FF0E0EE0FFF1F22
:1013F000EC55FE4F85919491E5E6F1E08491809360
:101400002A0415E09ECF14BC15BC84B5826084BD4F
:1014100085B5816085BDE5ECF1E08491E82FF0E0D1
:10142000EE0FFF1FEC55FE4F85919491E5E6F1E03C
:1014300084918093310485CF1092800010928100B6
:10144000809181008860809381008091810081601B
:1014500080938100E5ECF1E08491E82FF0E0EE0F5D
:10146000FF1FEC55FE4F85919491E5E6F1E08491E4
:101470008093300466CF1092B0001092B10080913A
:10148000B00082608093B0008091B1008160809351
:10149000B100E5ECF1E08491E82FF0E0EE0FFF1FE2
:1014A000EC55FE4F8591949190932F0480932E04D8
:1014B000E5E6F1E0849180932D0443CF10929000F3
:1014C00010929100809191008860809391008091AA
:1014D0009100816080939100E5ECF1E08491E82F28
:1014E000F0E0EE0FFF1FEC55FE4F85919491E5E67D
:1014F000F1E0849180932C0413E023CF1092A0009C
:101500001092A1008091A10088608093A100809139
:10151000A10081608093A100E5ECF1E08491E82FC7
:10152000F0E0EE0FFF1FEC55FE4F85919491E5E63C
:10153000F1E0849180932B0404CF85B5887F85608A
:1015400085BD8DE487BDC0924604D0924704E092E9
:101550004804F092490480916E00826080936E008E
:10156000BBCE1130C1F480918100887F836080936D
:1015700081007092890060928800C0924204D092EB
:101580004304E0924404F092450480916F0082602D
:1015900080936F00A1CE1330C1F480919100887FB9
:1015A0008360809391007092990060929800C0923D
:1015B0003A04D0923B04E0923C04F0923D048091C6
:1015C000710082608093710087CE1430C1F48091E5
:1015D000A100887F83608093A1007092A90060922F
:1015E000A800C0923604D0923704E0923804F092FA
:1015F0003904809172008260809372006DCE153044
:10160000C1F480912101887F8360809321017092D1
:10161000290160922801C0923204D0923304E092F2
:101620003404F092350480917300826080937300DB
:1016300053CE123089F034F4112361F0113009F0E7
:101640004BCE97CF143049F20CF4ADCF153009F0E2
:1016500043CEDDCF81EE76CF81EE82CE86EC93E075
:101660007FDA61E08CE053D837CEA1E21A2EAA1BB4
:10167000BB1BFD010DC0AA1FBB1FEE1FFF1FA21742
:10168000B307E407F50720F0A21BB30BE40BF50B3F
:10169000661F771F881F991F1A9469F760957095C8
:1016A000809590959B01AC01BD01CF010895EE0F8F
:1016B000FF1F881F8BBF0790F691E02D1994F894B7
:0216C000FFCF5A
:1016C200FF181716191A1B1C3132333435363738C6
:1016D200392A3023000000005B02C601F301A70291
:1016E20024020202160200000000F303B403850381
:1016F2000D0A00566F74696E67204D616368696EEA
:1017020065206E756D62657220005072657373207C
:10171200616E79206B657920746F20636F6E7469D6
:101722006E7565202E2E2E00312E2044656C61725E
:10173200616D2052616A6165692000322E204E6916
:10174200636F6C6520436861726C65732000332E91
:101752002041696D6965204C616E636173746572C5
:101762002000342E204A61636F62204D6163646FF2
:101772006E616C642000352E20436F6C696E2052BE
:101782006F6D616E200043686F6F73652061206E1C
:10179200756D626572203A200020596F7520766F50
:1017A20074656420666F722044656C6172616D209D
:1017B20052616A61656921200020596F7520766F38
:1017C20074656420666F72204E69636F6C65204396
:1017D2006861726C657321200020596F7520766FE5
:1017E20074656420666F72202041696D6965204CC2
:1017F200616E63617374657221200020596F7520D8
:10180200766F74656420666F72204A61636F62202E
:101812004D6163646F6E616C6421200020596F75A5
:1018220020766F74656420666F7220436F6C696EF8
:1018320020526F6D616E212000205468616E6B2012
:10184200796F7520666F7220766F74696E672120DA
:10185200002053656E6420566F7465210020577214
:101862006F6E67206E756D62657220706C65617354
:10187200652074727920616761696E206C6174659C
:10188200722E2E2E2000536F727279206275742090
:10189200796F7520616C726561647920766F746509
:1018A2006420666F722074776F2063616E6469646E
:1018B200617465732E003D3D3D3D3D3D3D3D3D3DE9
:1018C2003D3D3D3D3D3D3D3D3D3D3D3D3D3D3D3D46
:1018D2003D3D3D3D3D3D3D3D3D3D3D3D3D3D3D3D36
:0218E2003D00C7
:00000001FF
