:1000000003C1000032C1000030C100002EC1000059
:100010002CC100002AC1000028C1000026C1000038
:1000200024C1000022C1000020C100001EC1000048
:100030001CC100001AC1000018C1000016C1000058
:1000400014C100000C94690B10C100000EC1000027
:100050000CC100000AC1000008C100000C94980AFD
:1000600004C100000C94620A0C94380AFEC000001F
:10007000FCC00000FAC00000F8C00000F6C000009C
:100080000C943C0BF2C00000F0C00000EEC0000079
:10009000ECC00000EAC00000E8C00000E6C00000BC
:1000A000E4C00000E2C000000C940F0BDEC00000B2
:1000B000DCC00000DAC00000D8C000000C94E20AE6
:1000C000D4C00000D2C00000D0C00000CEC00000EC
:1000D000CCC00000CAC00000C8C00000C6C00000FC
:1000E000C4C0000000002100240027002A002D00C9
:1000F0003000330001010000040107010A01000083
:100100002200250028002B002E00310034000201BF
:100110000000050108010B0100002000230026005B
:1001200029002C002F00320000010000030106010D
:10013000090105050505070508080808020202026D
:100140000A0A080804040404010101010101010173
:100150000303030303030303040707070C0C0C0C3E
:100160000C0C0C0C02020202060606060606060627
:100170000B0B0B0B0B0B0B0B0102102020080810B4
:100180002040102040800201020108040201010207
:1001900004081020408080402010080402018004E0
:1001A000020180402010080402010804020101023B
:1001B0000408102040800102040810204080000044
:1001C0000A0B02090C0D0E080703040100000000D1
:1001D000000000000000000000000000000000001F
:1001E00000000000000000000000121110000000DC
:1001F00000000000000000000000000000000000FF
:1002000000000000B10BB50F11241FBECFEFD1E2EB
:10021000DEBFCDBF00E00CBF13E0A0E0B2E0E8EA33
:10022000F4E200E00BBF02C007900D92AE36B107BA
:10023000D9F725E0AEE6B3E001C01D92A634B207BF
:10024000E1F711E0C3E0D1E000E006C02197010929
:10025000802FFE010E942110C230D10780E00807E4
:10026000A9F70E94890C0C944312CACE96E0899F8C
:10027000D0011124A755BB4F90967C936E935F9746
:1002800091E091969C939197E0911605F091170556
:1002900090911505992339F0309751F0811108C0DC
:1002A0008091C5041994309719F05C968C91FACF1F
:1002B0000895CF92DF92EF92FF920F931F9396E0F3
:1002C000899FF0011124E755FB4F11A2278D30A122
:1002D0002130310549F178F02230310509F44FC061
:1002E0002330310509F450C01F910F91FF90EF901A
:1002F000DF90CF9008956623B9F361E070E0B6DF38
:100300002FB7F8948091080490910904A0910A04F1
:10031000B0910B042FBF8093010590930205A09329
:100320000305B0930405E0CF9FB7F894C09008048C
:10033000D0900904E0900A04F0900B049FBF009154
:100340000105109102052091030530910405C01AA2
:10035000D10AE20AF30A009113051091140530E066
:1003600020E00C151D052E053F0548F462E070E005
:100370001F910F91FF90EF90DF90CF9077CF611199
:10038000B3CF63E070E0F4CF70E060E0F1CFAF9204
:10039000BF92CF92DF92EF92FF920F931F93CF9372
:1003A000DF936C017B018B01040F151FEB015E01D4
:1003B000AE18BF08C017D10759F06991D601ED9169
:1003C000FC910190F081E02DC6011995892B79F7F8
:1003D000C501DF91CF911F910F91FF90EF90DF90BA
:1003E000CF90BF90AF900895FC01538D448D252F81
:1003F00030E0842F90E0821B930B541710F0CF96BF
:10040000089501970895FC01918D828D981761F0F0
:10041000A28DAE0FBF2FB11D5D968C91928D9F5F07
:100420009F73928F90E008958FEF9FEF0895FC01E6
:10043000918D828D981731F0828DE80FF11D858D99
:1004400090E008958FEF9FEF0895FC01918D228D2C
:10045000892F90E0805C9F4F821B91098F739927B1
:1004600008958CE094E0F1DF21E0892B09F420E08D
:10047000822F0895FC01A48DA80FB92FB11DA35A96
:10048000BF4F2C91848D90E001968F739927848FB4
:10049000A689B7892C93A089B1898C9183708064D7
:1004A0008C93938D848D981306C00288F389E02D78
:1004B00080818F7D80830895EF92FF920F931F9329
:1004C000CF93DF93EC0181E0888F9B8D8C8D981307
:1004D0001AC0E889F989808185FF15C09FB7F89413
:1004E000EE89FF896083E889F9898081837080645F
:1004F00080839FBF81E090E0DF91CF911F910F91AA
:10050000FF90EF900895F62E0B8D10E00F5F1F4FB8
:100510000F731127E02E8C8D8E110BC00FB607FCC8
:10052000FACFE889F989808185FFF5CFCE01A2DF76
:10053000F2CFEB8DEC0FFD2FF11DE35AFF4FF08250
:100540009FB7F8940B8FEA89FB8980818062D0CFB6
:10055000CF93DF93EC01888D8823B1F0AA89BB8902
:10056000E889F9898C9185FD03C0808186FD0CC0E6
:100570000FB607FCF7CF8C9185FFF2CF808185FF06
:10058000EDCFCE0177DFEACFDF91CF91089580E004
:1005900090E0892B21F065DF81110E94000080E04E
:1005A00090E0892B49F080E090E0892B29F00E94AF
:1005B000000081110E94000080E090E0892B49F04A
:1005C00080E090E0892B29F00E94000081110E94B8
:1005D000000080E090E0892B49F080E090E0892BDA
:1005E00029F00E94000081110C94000008958150B0
:1005F000823108F05AC0E82FF0E08827ED5FFC4F09
:100600008F4F0C9421102303270315031B031F0393
:1006100055032A03300334033A033E0342034803DD
:100620004C035503500356035A03809180008F7783
:10063000809380000895809180008F7DF9CF809114
:100640008000877FF5CF84B58F7784BD089584B50A
:100650008F7DFBCF8091B0008F778093B00008959D
:100660008091B0008F7DF9CF809190008F7780933B
:1006700090000895809190008F7DF9CF8091900037
:10068000877FF5CF8091A0008F778093A000089599
:100690008091A0008F7DF9CF8091A000877FF5CF5A
:1006A000809120018F77809320010895809120010F
:1006B0008F7DF9CF80912001877FF5CFCF93DF9396
:1006C000282F30E0F901E254FE4F8491F901E858F7
:1006D000FE4FD491F901EE5CFE4FC491CC2399F00A
:1006E000811185DFEC2FF0E0EE0FFF1FE85EFE4F7B
:1006F000A591B491EC91ED2381E090E009F480E0C4
:10070000DF91CF91089580E090E0FACF862FD6CF89
:100710001F93CF93DF93282F30E0F901E254FE4F6F
:100720008491F901E858FE4FD491F901EE5CFE4F37
:10073000C491CC23A1F0162F811159DFEC2FF0E0EA
:10074000EE0FFF1FE250FF4FA591B4918FB7F894C1
:10075000EC91111108C0D095DE23DC938FBFDF919F
:10076000CF911F910895DE2BF8CF862F642FD0CF25
:10077000CF93DF9390E0FC01E858FE4F24918E5C0C
:100780009E4FFC0184918823C9F090E0880F991F47
:10079000FC01EC51FF4FA591B491FC01E250FF4FD9
:1007A000C591D49161110DC09FB7F8948C9120959B
:1007B00082238C938881282328839FBFDF91CF9148
:1007C0000895623051F49FB7F8943C91822F809540
:1007D00083238C93E8812E2BEFCF8FB7F894EC9185
:1007E0002E2B2C938FBFEACF862F642FC1CF6F9211
:1007F0007F928F929F92AF92BF92CF92DF92EF92B1
:10080000FF920F931F93CF93DF9381E080931505A1
:100810008FB7F894409108045091090460910A043C
:1008200070910B048FBF8091050590910605A091F2
:100830000705B0910805481B590B6A0B7B0B80918B
:10084000110590911205B0E0A0E084179507A60766
:10085000B70708F016C1C0E080910F05C81758F41B
:10086000E0910B05F0910C05EC0FF11D62E0808129
:100870007FDFCF5FF1CF712C812C912C54018394B9
:1008800080911005781608F05AC0072D10E0E0910D
:100890000D05F0910E05E00FF11F61E0808168DF2A
:1008A000E0910D05F0910E05E00FF11F60E08081F1
:1008B0002FDFD501C401072C04C0880F991FAA1F80
:1008C000BB1F0A94D2F76C017C01E094F094612C78
:1008D00080910F056816F0F4C62DD0E0E0910B056D
:1008E000F0910C05EC0FFD1F8081E8DE2496CC0F03
:1008F000DD1FC755DB4F892B41F4888199818C29F5
:100900009D29998388836394E3CF888199818E217F
:100910009F21F7CFE0910D05F0910E05E00FF11F3B
:1009200061E08081F5DE80910D0590910E05080F44
:10093000191F60E0F80180811BDF7394A1CFC9EA21
:10094000D4E0FE018FEF9FEF278D30A1232B21F400
:10095000148E968F858F11A2369624E0E53EF2071D
:1009600099F7F12C96E0D92E80910F05F81608F032
:100970004FC0E12C0F2D10E0000F111F0F541B4F23
:1009800020911005E21608F041C0F80160817181E4
:100990000E2C02C0769567950A94E2F7F29E9001BC
:1009A00011242E0D311DE9EAF4E080E0458D568DCD
:1009B0002417350709F469C08F5F36968A30B1F77E
:1009C00060FF22C0E9EAF4E090E080E0448D41114C
:1009D00016C0E0910905F0910A05E20FF31F40816E
:1009E000D89EF001D99EF00D1124E755FB4F448F9E
:1009F000368F258F10A2178E61E05BDC05C0019653
:100A000036968A30910511F7E394BACFF394ACCFC0
:100A100080E099A19111892F2696F4E0C53EDF0769
:100A2000C1F79FB7F8944091080450910904609170
:100A30000A0470910B049FBF40930505509306056F
:100A400060930705709308058823D9F08091CA0444
:100A50008823B9F08091C8049091C904019789F462
:100A60008091C504DF91CF911F910F91FF90EF907E
:100A7000DF90CF90BF90AF909F908F907F906F90BE
:100A800008951092150580E0EDCF6170B6CF1F93E9
:100A9000CF93DF93EC01162F8881803308F04FC08D
:100AA00061E0812F65DE8881282F30E0F901EE0FAB
:100AB000FF1FE20FF31FE858FC4F1F736081607C3B
:100AC000612B60839EE8998394E69A832CE0622FE1
:100AD0000E941510829FB001112430E020E0AB018C
:100AE000420F531FFA01EE0FFF1FE40FF51FE858E6
:100AF000FC4F908196FD16C02F5F3F4F2C30310583
:100B000071F7813009F51092800082E080938100B6
:100B10001092850010928400B19A80916F008260DB
:100B200080936F00E8818E2F90E0FC01EE0FFF1F95
:100B3000E80FF91FE858FC4F80818064808388812A
:100B4000DF91CF911F910895823061F4109290004F
:100B500080939100109295001092940088BB80932E
:100B60007100E0CF833069F41092A00082E080939E
:100B7000A1001092A5001092A40089BB809372007E
:100B8000D1CF8111CFCF1092200182E0809321013B
:100B900010922501109224018ABB80937300C2CF6A
:100BA0003FB7F8948091740390917503A0917603F8
:100BB000B091770326B5A89B05C02F3F19F0019689
:100BC000A11DB11D3FBFBA2FA92F982F8827BC01A7
:100BD000CD01620F711D811D911D42E0660F771FCF
:100BE000881F991F4A95D1F708958F929F92AF92CF
:100BF000BF92CF92DF92EF92FF926B017C01D0DF28
:100C00004B015C01C114D104E104F104B1F0C8DF6F
:100C1000681979098A099B09683E73408105910525
:100C200088F321E0C21AD108E108F10888EE880EA5
:100C300083E0981EA11CB11CE5CFFF90EF90DF90E0
:100C4000CF90BF90AF909F908F900895CF92DF92FA
:100C5000EF92FF92CF93DF93EC01603282E078074E
:100C6000CCF5653B710514F064EB70E0898128E8F0
:100C700030E0281B310987FD3395220F331F220FE7
:100C8000331F6901330FEE08FF088A8128E532E03F
:100C9000281B310987FD3395220F331F220F331F85
:100CA000032E000C440B550B2C193D094E095F090E
:100CB000DB0177FF02C0B0E0A0E00E94DE0F24EB72
:100CC00030E040E050E00E94B80FC20ED31EE41E98
:100CD000F51EB601E881E03370F5298188E890E0DF
:100CE000821B910927FD9395880F991F880F991FE3
:100CF000681779077CF02A8188E592E0821B9109C8
:100D000027FD9395880F991F880F991F68177907FA
:100D10000CF4CB010297880F991F4FB7F8942E2F30
:100D200030E0F901EE0FFF1FE20FF31FE858FC4F10
:100D3000928381834FBFDF91CF91FF90EF90DF903F
:100D4000CF900895AF92BF92CF92DF92EF92FF9231
:100D50000F931F93CF93DF936B017A01EC01C2597C
:100D6000DC4F28813CE0389F8001399F100D112411
:100D7000A0907203B12C27FF1FC0FB0111821082CB
:100D800088818F5F888388819801280F311D87FDB6
:100D90003A95F6012A153B051CF488818C30BCF18C
:100DA00080819181049680349C4908F471C0F601D9
:100DB0008081918104966EC088819801280F311D31
:100DC00087FD3A952A153B05DCF68881A801480F76
:100DD000511D87FD5A95FA01EE0FFF1FE40FF51F15
:100DE000E858FC4F808186FFCBCF8881F801E80F5F
:100DF000F11D87FDFA95CF01EE0FFF1FE80FF91FD8
:100E0000E858FC4F808160E08F7382DCB9CF80812D
:100E100091812881A801420F511D27FD5A959A0101
:100E2000FA01EE0FFF1FE20FF31FE858FC4F21817C
:100E30003281820F931FF70191838083888198010B
:100E4000280F311D87FD3A95F901EE0FFF1FE20FC4
:100E5000F31FE858FC4F808186FF21C08881080F6E
:100E6000111D87FD1A95F801EE0FFF1FE00FF11F0E
:100E7000E858FC4F808161E08F73DF91CF911F9123
:100E80000F91FF90EF90DF90CF90BF90AF9040CC4C
:100E900080E49CE9F701918380838FEF8883DF9161
:100EA000CF911F910F91FF90EF90DF90CF90BF9067
:100EB000AF900895089590E080E0089560E086E3A3
:100EC00027DC60E087E324DC60E088E321DC60E08D
:100ED00089E31EDC60E08EE31BDC60E08FE318DC5E
:100EE00060E080E415DC60E081E412CCCF93DF9316
:100EF000EC0160E08E810CDC61E08E8109DC60E059
:100F00008E8106DC8BE891E00197F1F7DF91CF91BC
:100F10000895CF92DF92EF92FF920F931F93CF939A
:100F2000DF936C017C0187E0E80EF11CD0E0C0E0AB
:100F3000062F10E0B8010C2E02C0759567950A9433
:100F4000E2F76170F70181917F01E2DB2196C43005
:100F5000D10581F7C601DF91CF911F910F91FF90CD
:100F6000EF90DF90CF90C2CFCF92DF92EF92FF92BF
:100F70000F931F93CF93DF93EC01F62E642F8C8198
:100F8000C7DB8D818F3F11F060E0C2DB0F2D10E0D9
:100F90008F8584FF23C06E0187E0C80ED11CF12C21
:100FA000E12CB8010E2C02C0759567950A94E2F702
:100FB0006170F60181916F01ABDBFFEFEF1AFF0A61
:100FC00088E0E816F10469F7CE01DF91CF911F9117
:100FD0000F91FF90EF90DF90CF9088CFB80184E021
:100FE000759567958A95E1F7CE0193DF6F2DCE0158
:100FF000DF91CF911F910F91FF90EF90DF90CF90F5
:1010000088CF40E0682F88E195E0AECF81E0F9DF3E
:101010008BE39FE10197F1F70895CF93DF9382303F
:1010200029F49091270598609093270580932B05CC
:1010300010922C0580E480932D0580E180932E058D
:1010400080E580932F0561E080911C0591DB809104
:101050001D058F3F11F061E08BDB61E080911E0583
:1010600087DBC8E1D5E09E012851354080912705F6
:1010700084FD0AC084E090E02196281739073CF4EB
:1010800061E08E8175DBEFCF88E090E0F5CF8BE3F8
:101090009DE00197F1F760E080911C0539DB60E08D
:1010A00080911E0535DB80911D058F3F11F060E0BA
:1010B0002FDB8091270584FD2CC063E088E195E05B
:1010C00028DFCBE4D6E4CE010197F1F763E088E1B5
:1010D00095E01FDF2197F1F763E088E195E019DFE4
:1010E00083E592E00197F1F762E088E195E011DF96
:1010F00080912705806285DF84E0809328058CE05D
:1011000080DF84DF82E08093290586E0DF91CF9144
:1011100078CF806276DF8BE496E40197F1F78091D7
:10112000270580626EDF83E592E00197F1F78091F9
:101130002705806266DFDCCF90912B05691710F0E0
:101140006FEF690FE62FF0E0E85EFA4F9489890FA0
:10115000806857CF41E008DF81E090E0089541E0EA
:10116000682F88E195E000DF81E090E008958F929C
:101170009F92AF92BF920F931F93CF93DF93CDB700
:10118000DEB7A1970FB6F894DEBF0FBECDBF19A290
:10119000423008F44AE08E010F5D1F4F842E912CDF
:1011A000B12CA12CA50194010FD7E62FB901CA01DA
:1011B000EA303CF5E05DD801EE938D01232B242B22
:1011C000252B81F790E080E0109761F0FD01019000
:1011D0000020E9F73197AF014A1B5B0BBD0188E1A5
:1011E00095E0D5D8A1960FB6F894DEBF0FBECDBF5F
:1011F000DF91CF911F910F91BF90AF909F908F90F3
:101200000895E95CD8CFFC0101900020E9F73197FF
:10121000AF01481B590BBC0188E195E0B8C8CF92DB
:10122000DF92EF92FF92CF936C0161E082E084DF66
:1012300084E692E0E8DF61E083E07EDFCAE00D2C27
:10124000000CEE08FF08C701B601CFDC8FEE92E07C
:10125000DADFC150C1F7CF91FF90EF90DF90CF90D0
:101260000895D4DE61E080E067DF81E792E0CBDFC4
:1012700064E170E089E395E0E9DC61E082E448DA6A
:101280001DDE81E080932202089518DEBFDE61E05A
:1012900080E052DF89E792E0B6DF6AE570E089E33B
:1012A00095E0D4DC60E082E433DA10922202089503
:1012B000FC0180819181009709F067C70895CF9361
:1012C000DF93EC01A881B981EB01E881F9811097E6
:1012D000F1F03097B1F4EC018C819D81892BC9F03C
:1012E0008C9190E00BC0DB0114968D919C91892B21
:1012F00081F0808190E0919581959109DF91CF9166
:101300000895BF01CD01DF91CF910C943312309736
:1013100051F790E080E0F2CF0F931F93CF93DF93CC
:10132000EC0188819981009759F02A813B81261729
:10133000370730F081E0DF91CF911F910F91089531
:101340008B016F5F7F4FAAD7009759F099838883ED
:101350001B830A832C813D81232B61F7FC011082C2
:10136000E9CF80E0E8CFEF92FF920F931F93CF93E6
:10137000DF93EC017B018A01BA01CEDF288139813C
:10138000811113C02115310511F0C901FED6198252
:1013900018821D821C821B821A82CE01DF91CF919E
:1013A0001F910F91FF90EF9008951D830C83B7015B
:1013B000C9010E943C12F1CFEF92FF920F931F934D
:1013C000CF93DF931F921F92CDB7DEB78C011EDE45
:1013D00060E080E0B1DE80E892E015DF61E085E06A
:1013E000ABDE8CE892E00FDF61E086E0A5DEF8017D
:1013F00011821082138212821582148250E040E022
:101400006DEC72E0C801AFDFF8018481958104972B
:1014100028F5EDD9F82E80ED8F0D8A30A8F78AE2F5
:101420009EDEF9821A82F801E480F580FFEFEF1A60
:10143000FF0AB701C80170DF882331F3F80120816A
:10144000318184819581BE016F5F7F4F820F931F31
:101450000E943C12F801F582E482D6CFC8010F90B9
:101460000F90DF91CF911F910F91FF90EF90089512
:101470001F920F920FB60F9211240BB60F922F935B
:101480003F934F935F936F937F938F939F93AF930C
:10149000BF93EF93FF938CE094E00E943A02FF9198
:1014A000EF91BF91AF919F918F917F916F915F91DC
:1014B0004F913F912F910F900BBE0F900FBE0F9049
:1014C0001F9018951F920F920FB60F9211240BB612
:1014D0000F922F938F939F93EF93FF93E0911C04B0
:1014E000F0911D048081E0912204F091230482FD9B
:1014F0001DC09081809125048F5F8F7320912604F9
:10150000821741F0E0912504F0E0E45FFB4F958FF6
:1015100080932504FF91EF919F918F912F910F90D0
:101520000BBE0F900FBE0F901F9018958081F2CFC9
:101530001F920F920FB60F9211242F933F938F9308
:101540009F93AF93BF938091080490910904A09159
:101550000A04B0910B043091730323E0230F2D375D
:1015600058F50196A11DB11D2093730380930804C3
:1015700090930904A0930A04B0930B048091740320
:1015800090917503A0917603B09177030196A11D08
:10159000B11D8093740390937503A0937603B09369
:1015A0007703BF91AF919F918F913F912F910F90B2
:1015B0000FBE0F901F90189526E8230F0296A11DCD
:1015C000B11DD2CF1F920F920FB60F9211240BB6FE
:1015D0000F922F933F934F935F936F937F938F93CC
:1015E0009F93AF93BF93EF93FF9348E251E064E280
:1015F00071E090E080E0A6DBFF91EF91BF91AF91A9
:101600009F918F917F916F915F914F913F912F911A
:101610000F900BBE0F900FBE0F901F9018951F924A
:101620000F920FB60F9211240BB60F922F933F9388
:101630004F935F936F937F938F939F93AF93BF93DA
:10164000EF93FF9348EA50E064EA70E083E090E0B3
:1016500079DBFF91EF91BF91AF919F918F917F9136
:101660006F915F914F913F912F910F900BBE0F9013
:101670000FBE0F901F9018951F920F920FB60F92EA
:1016800011240BB60F922F933F934F935F936F9359
:101690007F938F939F93AF93BF93EF93FF9348E90B
:1016A00050E064E970E082E090E04CDBFF91EF9164
:1016B000BF91AF919F918F917F916F915F914F916A
:1016C0003F912F910F900BBE0F900FBE0F901F9068
:1016D00018951F920F920FB60F9211240BB60F920E
:1016E0002F933F934F935F936F937F938F939F932A
:1016F000AF93BF93EF93FF9348E850E064E870E046
:1017000081E090E01FDBFF91EF91BF91AF919F913E
:101710008F917F916F915F914F913F912F910F909A
:101720000BBE0F900FBE0F901F901895FC0190916B
:101730007203903398F481E0890F80937203908351
:10174000892F90E0FC01EE0FFF1FE80FF91FE8580A
:10175000FC4F88EB9BE09283818308958FEF808319
:10176000089510920F0410920E0488EE93E0A0E00A
:10177000B0E08093100490931104A0931204B093EE
:10178000130480E492E090930D0480930C0485ECA4
:1017900090E0909319048093180484EC90E0909367
:1017A0001B0480931A0480EC90E090931D048093B6
:1017B0001C0481EC90E090931F0480931E0482EC43
:1017C00090E0909321048093200486EC90E0909325
:1017D0002304809322041092250410922604109270
:1017E00027041092280410923D0510923C05109297
:1017F0003F0510923E05109241051092400544E0CD
:1018000050E063E972E08CE395E0ADDD89E395E0BB
:101810008DDF86E395E08ADF83E395E087DF80E371
:1018200095E084DF10921B0510921A058CE592E07A
:1018300090931905809318058DE080931C058FEF18
:1018400080931D058CE080931E0588E080931F0522
:1018500089E0809320058AE0809321058BE08093C6
:10186000220510922305109224051092250510924E
:1018700026051092270581E0D0DB1092AB04109270
:10188000AF041092AE041092B00482E592E09093FF
:10189000AA048093A904E5ECF4E010821482138278
:1018A0001582369685E0E130F807B9F786E292E0D6
:1018B00090930C0580930B0583E292E090930E05C4
:1018C00080930D0584E080930F0583E080931005DD
:1018D0008AE292E090930A05809309058AE090E0FD
:1018E000909312058093110584EF91E09093140575
:1018F0008093130510921705109216051092050596
:101900001092060510920705109208051092150511
:101910000895CF93DF93CDB7DEB72C970FB6F89429
:10192000DEBF0FBECDBF789484B5826084BD84B520
:10193000816084BD85B5826085BD85B5816085BDCA
:1019400080916E00816080936E0010928100809182
:10195000810082608093810080918100816080930A
:101960008100809180008160809380008091B1002F
:1019700084608093B1008091B00081608093B0005A
:1019800080919100826080939100809191008160AC
:10199000809391008091900081608093900080916D
:1019A000A10082608093A1008091A100816080935A
:1019B000A1008091A00081608093A000809121010E
:1019C00082608093210180912101816080932101B7
:1019D0008091200181608093200180917A00846051
:1019E00080937A0080917A00826080937A0080915F
:1019F0007A00816080937A0080917A008068809379
:101A00007A001092C10061E082E40E94B80361E0B4
:101A100086E30E94B80361E087E30E94B80361E0B7
:101A200088E30E94B80361E089E30E94B80361E0A3
:101A30008EE30E94B80361E08FE30E94B80361E087
:101A400080E40E94B80361E081E40E94B80382E070
:101A5000E4DA67E070E089E395E019D866E070E0C9
:101A600086E395E014D865E070E083E395E00FD855
:101A700064E070E080E395E00AD8E0911C04F09106
:101A80001D0482E08083E0911804F0911904108213
:101A9000E0911A04F0911B0480E1808310922404E9
:101AA000E0912004F091210486E08083E0911E04FF
:101AB000F0911F04808180618083E0911E04F09189
:101AC0001F04808188608083E0911E04F0911F04D0
:101AD000808180688083E0911E04F0911F048081E2
:101AE0008F7D808380912202882309F473C0B9DB43
:101AF00060E080E021DB88E992E085DB60ED77E063
:101B000080E090E072D880912202882309F483C19A
:101B1000D5D97CDA60E080E00FDB81EA92E073DB0C
:101B200061E080E009DB8AEA92E06DDB009120024F
:101B300010912102B80186E395E088D8B80183E3CB
:101B400095E084D8B80180E395E080D80E94F7033F
:101B50009FEC980F9230D0F7813309F0F9C1CE0194
:101B600007962ADC1A8219821C821B821E821D8221
:101B70006F8178856115710529F04B855C85CE01F3
:101B80000196F1DB2D813E818091400590914105C8
:101B90002817390741F46CE375E0CE0101968FDB1D
:101BA00011E0892B09F010E0CE01019681DB88EC71
:101BB00090E035DB112381F029DA60E080E0BCDAC7
:101BC00085EB92E020DB61DBCE01079671DB0E94A2
:101BD000C70299CF5ADB8CCF19DA60E080E0ACDA2B
:101BE0008FEB92E010DB84EF91E019DBEDCF8A32CE
:101BF00009F0D0C0E3E0EE16F10409F004C15ED9AB
:101C0000F1E301E010E0DF1689F082E302E010E08A
:101C1000D81661F0E3E303E010E0DE1639F0F4E3F8
:101C200004E010E0DF1611F005E010E081E3C816D3
:101C300089F0E2E3CE1609F478C0F3E3CF1669F039
:101C400084E354E0E52EF12CC81639F025E0E22EAD
:101C5000F12C03C0EE24E394F12CD8D960E080E0AD
:101C60006BDAE5E0EE16F10409F47EC005301105EB
:101C700009F47AC001501109000F111F000F111F44
:101C8000C7010197080F191F000F111F00501E4FA9
:101C9000F80180819181009709F48BC001979183AD
:101CA0008083809120029091210244979093210299
:101CB00080932002ABD960E080E03EDA81EE92E0D2
:101CC000A2DA61E088E038DAF80180809180092C9E
:101CD000000CAA08BB084AE0C501B401B7FE0AC05F
:101CE0008DE23DDA66277727CB01681979098A09E1
:101CF0009B094AE03CDAF1E361E086E3CF1629F084
:101D000082E3C81216C061E087E30E94880381E382
:101D1000D8121AC061E08EE30E94880360ED77E07C
:101D200080E090E00E94F50552CF32E0E32EF12CE6
:101D300094CFE3E361E088E3CE1639F3F4E3CF1206
:101D4000E6CF61E089E3E1CFE2E361E08FE3DE1615
:101D500019F3F3E361E080E4DF16F1F284E3D812D3
:101D6000DDCF61E081E4D8CF51D960E083E0E4D9F0
:101D700081EF92E048DA61E082E0DED98AEF92E01A
:101D800042DA60ED77E080E090E00E94F505F12C0A
:101D9000E12C14C0882369F0E1E0EE16F10441F56E
:101DA00061E08EE0C9D9812FDAD9D12E8FEFE81A00
:101DB000F80A84E0E816F10409F409CF0E94F70359
:101DC000182F833221F0E114F10409F010CF1ED94D
:101DD00060E080E0B1D98EEC92E015DA61E080E05D
:101DE000ABD987ED92E00FDAEE24E394F12CE6CF45
:101DF000F2E0EF16F104D1F661E08FE09DD9812F7A
:101E0000AED9C12ED3CF02D960E080E095D988E069
:101E100093E0F9D9BCCF52D8F9D860E080E08CD9F2
:101E200085E193E0F0D961E080E086D98CE193E030
:101E3000EAD970E060E086E395E00E94260670E053
:101E400060E083E395E00E94260670E060E080E3B6
:101E500095E00E9426060E94F7039FEC980F9230AF
:101E6000D0F7823309F047C0D1D860E080E064D970
:101E700087E293E0C8D9CE0107969EDAC7D860E022
:101E800080E05AD987E393E0BED9CE01019694DA77
:101E90000B851C858D819E810817190709F04BC0A1
:101EA000BE016F5F7F4FCE01079609DA892B09F0DB
:101EB00042C06F8178856115710549F1A8018CE3F5
:101EC00095E051DAA3D860E080E036D988E493E069
:101ED0009AD961E080E030D984E693E094D960ED4E
:101EE00077E080E090E00E94F505CE010196E0D910
:101EF000CE010796DDD98AD860E080E01DD981E760
:101F000092E081D9AED984E690E089D960CE809103
:101F10003C0590913D05009709F037D110923D05A1
:101F200010923C05109241051092400510923F0519
:101F300010923E05C7CF6AD860E081E0FDD883E506
:101F400093E061D961E080E0F7D881E693E0C6CF05
:101F50005DD860E080E0F0D88EEC92E054D961E08A
:101F600080E0EAD887ED92E054CF8CE395E0A0C9F9
:101F7000052E97FB16F400940FD057FD05D024D002
:101F800007FC02D046F408C0509540953095219545
:101F90003F4F4F4F5F4F0895909580957095619595
:101FA0007F4F8F4F9F4F089531D0A59F900DB49FC5
:101FB000900DA49F800D911D11240895B7FFF4CFBB
:101FC000F3DF821B930B0895A1E21A2EAA1BBB1B01
:101FD000FD010DC0AA1FBB1FEE1FFF1FA217B307F5
:101FE000E407F50720F0A21BB30BE40BF50B661F0B
:101FF000771F881F991F1A9469F7609570958095CF
:1020000090959B01AC01BD01CF010895A29FB00145
:10201000B39FC001A39F700D811D1124911DB29F1C
:10202000700D811D1124911D0895991B79E004C044
:10203000991F961708F0961B881F7A95C9F7809507
:102040000895EE0FFF1F881F8BBF0790F691E02DBC
:1020500019940F931F93CF93DF938230910510F45F
:1020600082E090E0E0914405F091450530E020E009
:10207000B0E0A0E0309799F42115310509F44AC089
:10208000281B390B24303105D8F58A819B816115D5
:10209000710589F1FB0193838283FE0111C04081A8
:1020A00051810281138148175907E0F048175907F9
:1020B00099F4109761F012960C93129713961C9353
:1020C0003296CF01DF91CF911F910F910895009328
:1020D000440510934505F4CF2115310551F0421701
:1020E000530738F0A901DB019A01BD01DF01F801B6
:1020F000C1CFEF01F9CF9093450580934405CDCF33
:10210000FE01E20FF31F819391932250310939832D
:102110002883D7CF2091420530914305232B41F4EA
:1021200020913802309139023093430520934205C3
:1021300020913602309137022115310541F42DB737
:102140003EB740913A0250913B02241B350BE0917F
:102150004205F0914305E217F307A0F42E1B3F0B55
:102160002817390778F0AC014E5F5F4F2417350709
:1021700048F04E0F5F1F50934305409342058193F3
:1021800091939FCFF0E0E0E09CCFCF93DF93009757
:10219000E9F0FC01329713821282A0914405B091BC
:1021A0004505ED0130E020E01097A1F42081318158
:1021B000820F931F2091420530914305281739075C
:1021C00009F061C0F0934305E0934205DF91CF91A0
:1021D0000895EA01CE17DF07E8F54A815B819E0189
:1021E00041155105B1F7E901FB83EA834991599102
:1021F000C40FD51FEC17FD0761F480819181029611
:10220000840F951FE90199838883828193819B8341
:102210008A83F0E0E0E012968D919C9113970097ED
:10222000B9F52D913C911197CD010296820F931F24
:1022300020914205309143052817390739F6309728
:1022400051F51092450510924405B0934305A093B3
:102250004205BCCFD383C28340815181840F951F37
:10226000C817D90761F44E5F5F4F88819981480F85
:10227000591F518340838A819B81938382832115D7
:10228000310509F0B0CFF0934505E09344059ECFAA
:10229000FD01DC01C0CF13821282D7CF4F925F9233
:1022A0006F927F928F929F92AF92BF92CF92DF9266
:1022B000EF92FF920F931F93CF93DF938C010097C0
:1022C00091F4CB01DF91CF911F910F91FF90EF908F
:1022D000DF90CF90BF90AF909F908F907F906F9046
:1022E0005F904F90B6CEFC01E60FF71F9C01225085
:1022F0003109E217F30708F4AAC0D901CD91DC91A6
:102300001197C617D70718F1C530D10570F0CE0167
:1023100004978617970748F0C61BD70B2297C193DF
:10232000D1936D937C93CF0130DFC801DF91CF91C2
:102330001F910F91FF90EF90DF90CF90BF90AF90E3
:102340009F908F907F906F905F904F9008955B016A
:10235000AC1ABD0A4C018C0E9D1EA0914405B09193
:102360004505512C412CF12CE12C109731F5809131
:102370004205909143058815990509F05CC0461601
:10238000570608F058C080913602909137020097A6
:1023900041F48DB79EB740913A0250913B02841BA5
:1023A000950BE817F90708F052C0F0934305E09346
:1023B0004205F90171836083B8CF8D919C9111978B
:1023C00012966C90129713967C901397A815B905E6
:1023D00059F56C0142E0C40ED11CCA14DB0420F193
:1023E000AC014A195B09DA011296159780F06282F6
:1023F000738251834083D9016D937C93E114F1047E
:1024000071F0D7011396FC93EE9312978ECF22961C
:102410008C0F9D1FF90191838083F301EFCFF0931F
:102420004505E093440581CF4816590608F42C0170
:102430007D01D3019ACFCB010CDE7C01009739F0EE
:10244000AE01B80107D0C801A0DE87016ECF10E051
:1024500000E06BCFFB01DC0102C001900D92415006
:102460005040D8F70895FB01DC018D91019080194F
:102470000110D9F3990B0895FB01DC0101900D9235
:102480000020E1F7089511E0C3E0D1E000E005C0CD
:10249000802FFE01D6DD2196011DC430D10780E0DA
:0824A0000807B1F7F894FFCF23
:1024A80009000900090009000900090009000900DC
:1024B80009000900090009000900090009000900CC
:1024C8006400011918171A1B1C1D313233343536B4
:1024D8003738392A30230000460580000000000004
:1024E8005C02C701F401A8022502030217020000DA
:1024F8000000F403B503860300000000AA08C70122
:102508005B075A075B2E2E2E2E2E2E2E2E2E2E5D7C
:10251800004C6F636B656421004F70656E64210029
:10252800456E74657220706173733A005B5F5F5F1C
:102538005F5D00313233340057656C636F6D652120
:1025480000312E556E6C6F636B00322E4765742018
:10255800466F6F6400556E6C6F636B656421004154
:1025680063636573732044656E6965642100232E77
:1025780044656C657465002A2E436F6E6669726DDA
:10258800004E756D626572204F6620666F6F643D00
:10259800004E6F20466F6F6421005069636B2041C5
:1025A8006E6F74686572210057726F6E6720496E8E
:1025B8007075742100312E4C6F636B00322E4E659E
:1025C8007720436F646500456E746572206E657789
:1025D80020636F64653A00436F6E6669726D206EA2
:1025E800657720636F646500436F6465206D61746F
:1025F800636800436F6465206D69736D6174636817
:0E260800006E6F206E657720706173730000A6
:00000001FF
