:1000000004C1000033C1000031C100002FC1000055
:100010002DC100002BC1000029C1000027C1000034
:1000200025C1000023C1000021C100001FC1000044
:100030001DC100000C94AD0B19C1000017C10000D8
:1000400015C100000C947D0D11C100000FC100000E
:100050000DC100000BC1000009C100000C94AC0CE4
:1000600005C100000C94760C0C944C0CFFC00000F1
:10007000FDC00000FBC00000F9C00000F7C0000098
:100080000C94500DF3C00000F1C00000EFC0000060
:10009000EDC00000EBC00000E9C00000E7C00000B8
:1000A000E5C00000E3C000000C94230DDFC0000099
:1000B000DDC00000DBC00000D9C000000C94F60CCD
:1000C000D5C00000D3C00000D1C00000CFC00000E8
:1000D000CDC00000CBC00000C9C00000C7C00000F8
:1000E000C5C0000000002100240027002A002D00C8
:1000F0003000330001010000040107010A01000083
:1001000020002300260029002C002F0032000001CF
:10011000000003010601090100000A0B02090C0D91
:100120000E080703040100000000000000000000AA
:1001300000000000000000000000000000000000BF
:10014000000000001211100000000000000000007C
:10015000000000000000000000000000000001029C
:1001600010202008081020401020408002010201C9
:100170000804020101020408102040808040201081
:1001800008040201800402018040201008040201DA
:100190000804020101020408102040800102040842
:1001A0001020408000002200250028002B002E0097
:1001B0003100340002010000050108010B010505B2
:1001C0000505070508080808020202020A0A0808CD
:1001D00004040404010101010101010103030303FB
:1001E00003030303040707070C0C0C0C0C0C0C0C8A
:1001F0000202020206060606060606060B0B0B0B9B
:100200000B0B0B0B0200AA0D2A1111241FBECFEFFE
:10021000D1E2DEBFCDBF00E00CBF13E0A0E0B2E052
:10022000E2E9F7E200E00BBF02C007900D92AC30AC
:10023000B107D9F724E0ACE0B3E001C01D92AF3FB5
:10024000B207E1F711E0C4E0D1E000E006C0219779
:100250000109802FFE010E949611C330D10780E072
:100260000807A9F70E94910E0C94B813C9CE8F927B
:100270009F92AF92BF92FF920F931F93CF93DF9302
:10028000F090F2042FE22F1508F44CC02091F404F2
:1002900008E512E0021B110927FD1395000F111F3D
:1002A000000F111F2091F304C8E8D0E0C21BD10950
:1002B00027FDD395CC0FDD1FCC0FDD1F4E010D2E7A
:1002C000000CAA08BB089801012E000C440B550B2A
:1002D000281939094A095B09DC010E94531124EBF2
:1002E00030E040E050E00E942D11820E931EA41ECB
:1002F000B51E8C169D062CF0E801801691060CF4B4
:10030000E4012297CC0FDD1F2FB7F8948F2D90E0DA
:10031000FC01EE0FFF1FE80FF91FE652FC4FD283DE
:10032000C1832FBFDF91CF911F910F91FF90BF909D
:10033000AF909F908F90089596E0899FD0011124EF
:10034000A559BB4F90967C936E935F9791E09196E1
:100350009C939197E091D804F091D9049091D7049F
:10036000992339F0309751F0811108C080918704AA
:100370001994309719F05C968C91FACF0895AF924A
:10038000BF92CF92DF92EF92FF920F931F93CF9382
:10039000DF936C017B018B01040F151FEB015E01E4
:1003A000AE18BF08C017D10759F06991D601ED9179
:1003B000FC910190F081E02DC6011995892B79F708
:1003C000C501DF91CF911F910F91FF90EF90DF90CA
:1003D000CF90BF90AF900895FC01538D448D252F91
:1003E00030E0842F90E0821B930B541710F0CF96CF
:1003F000089501970895FC01918D828D981761F001
:10040000A28DAE0FBF2FB11D5D968C91928D9F5F17
:100410009F73928F90E008958FEF9FEF0895FC01F6
:10042000918D828D981731F0828DE80FF11D858DA9
:1004300090E008958FEF9FEF0895FC01918D228D3C
:10044000892F90E0805C9F4F821B91098F739927C1
:1004500008958DE393E0F1DF21E0892B09F420E09A
:10046000822F0895FC01A48DA80FB92FB11DA35AA6
:10047000BF4F2C91848D90E001968F739927848FC4
:10048000A689B7892C93A089B1898C9183708064E7
:100490008C93938D848D981306C00288F389E02D88
:1004A00080818F7D80830895EF92FF920F931F9339
:1004B000CF93DF93EC0181E0888F9B8D8C8D981317
:1004C0001AC0E889F989808185FF15C09FB7F89423
:1004D000EE89FF896083E889F9898081837080646F
:1004E00080839FBF81E090E0DF91CF911F910F91BA
:1004F000FF90EF900895F62E0B8D10E00F5F1F4FC9
:100500000F731127E02E8C8D8E110BC00FB607FCD8
:10051000FACFE889F989808185FFF5CFCE01A2DF86
:10052000F2CFEB8DEC0FFD2FF11DE35AFF4FF08260
:100530009FB7F8940B8FEA89FB8980818062D0CFC6
:10054000CF93DF93EC01888D8823B1F0AA89BB8912
:10055000E889F9898C9185FD03C0808186FD0CC0F6
:100560000FB607FCF7CF8C9185FFF2CF808185FF16
:10057000EDCFCE0177DFEACFDF91CF91089580E014
:1005800090E0892B21F065DF81110E94000080E05E
:1005900090E0892B49F080E090E0892B29F00E94BF
:1005A000000081110E94000080E090E0892B49F05A
:1005B00080E090E0892B29F00E94000081110E94C8
:1005C000000080E090E0892B49F080E090E0892BEA
:1005D00029F00E94000081110C94000008958150C0
:1005E000823108F05AC0E82FF0E08827E550FD4F2F
:1005F0008F4F0C9496111B031F030D031303170356
:100600004D03220328032C03320336033A0340032D
:1006100044034D0348034E035203809180008F77BB
:10062000809380000895809180008F7DF9CF809124
:100630008000877FF5CF84B58F7784BD089584B51A
:100640008F7DFBCF8091B0008F778093B0000895AD
:100650008091B0008F7DF9CF809190008F7780934B
:1006600090000895809190008F7DF9CF8091900047
:10067000877FF5CF8091A0008F778093A0000895A9
:100680008091A0008F7DF9CF8091A000877FF5CF6A
:10069000809120018F77809320010895809120011F
:1006A0008F7DF9CF80912001877FF5CFCF93DF93A6
:1006B000282F30E0F901E85EFE4F8491F901E25AFB
:1006C000FE4FD491F901E254FE4FC491CC2399F02E
:1006D000811185DFEC2FF0E0EE0FFF1FE250FF4F9E
:1006E000A591B491EC91ED2381E090E009F480E0D4
:1006F000DF91CF91089580E090E0FACF862FD6CF9A
:100700001F93CF93DF93282F30E0F901E85EFE4F6F
:100710008491F901E25AFE4FD491F901E254FE4F5F
:10072000C491CC23A1F0162F811159DFEC2FF0E0FA
:10073000EE0FFF1FEC55FE4FA591B4918FB7F894C3
:10074000EC91111108C0D095DE23DC938FBFDF91AF
:10075000CF911F910895DE2BF8CF862F642FD0CF35
:10076000CF93DF9390E0FC01E25AFE4F2491825434
:100770009E4FFC0184918823C9F090E0880F991F57
:10078000FC01EC51FF4FA591B491FC01EC55FE4FDB
:10079000C591D49161110DC09FB7F8948C912095AB
:1007A00082238C938881282328839FBFDF91CF9158
:1007B0000895623051F49FB7F8943C91822F809550
:1007C00083238C93E8812E2BEFCF8FB7F894EC9195
:1007D0002E2B2C938FBFEACF4F925F926F927F9216
:1007E0008F929F92AF92BF92CF92DF92EF92FF9241
:1007F0000F931F93CF938C0180910102873099F062
:100800008F3F09F4A7C0CF911F910F91FF90EF90F8
:10081000DF90CF90BF90AF909F908F907F906F9020
:100820005F904F900895E4E0F2E0C491C7FDEBCFF4
:1008300061E087E095DF4801B12CA12CCC23F9F0D1
:10084000712C612CC23009F058C15301480160E994
:1008500070ED83E090E0A30198010E942D116901E1
:100860007A0181E0C81AD108E108F10883E09FEF1E
:10087000C916D104E104F10409F00CF464C060E08D
:1008800072E18AE790E0A50194010E942D112901EF
:100890003A0168E478EE81E090E0A50194010E94BD
:1008A0002D1169017A0181E0C81AD108E108F10827
:1008B000CC2309F4DBC1C23009F0D6C184E09FEF3C
:1008C000C916D104E104F104F1F1ECF164E274EF32
:1008D00080E090E0A50194010E942D1169017A0148
:1008E00081E0C81AD108E108F10885E09FEFC91638
:1008F000D104E104F10439F130F162E17AE780E0FA
:1009000090E0A50194010E942D1169017A0181E016
:10091000C81AD108E108F10886E09FEFC916D10492
:10092000E104F10481F07CF0730162019AE0F59436
:10093000E794D794C7949A95D1F781E0C81AD10863
:10094000E108F10887E09091B100987F892B8093AE
:10095000B100AFC187E080930102E4E0F2E0C4910E
:100960008C2FCF3F09F44FCFC23009F467C058F441
:10097000CC2371F1C13009F443C087FD44CF61E05D
:1009800087E0EEDE5DCFC43009F499C008F478C08A
:10099000C53099F710922001109221018091210118
:1009A00088608093210180912101816080932101E1
:1009B000E5ECF1E0E491F0E0EE0FFF1FEC55FE4FA7
:1009C00085919491E5E6F1E0E491E0931D0330CF49
:1009D00014BC15BC84B5826084BD85B5816085BDBD
:1009E000E5ECF1E0E491F0E0EE0FFF1FEC55FE4F77
:1009F00085919491E5E6F1E0E491E093240318CF2A
:100A00001092800010928100809181008860809314
:100A1000810080918100816080938100E5ECF1E0AC
:100A2000E491F0E0EE0FFF1FEC55FE4F859194919D
:100A3000E5E6F1E0E491E0932303FACE1092B000F2
:100A40001092B1008091B00082608093B0008091DC
:100A5000B10081608093B100E5ECF1E0E491F0E059
:100A6000EE0FFF1FEC55FE4F85919491909322035A
:100A700080932103E5E6F1E0E491E0932003D8CEF2
:100A80001092900010929100809191008860809364
:100A9000910080919100816080939100E5ECF1E0FC
:100AA000E491F0E0EE0FFF1FEC55FE4F859194911D
:100AB000E5E6F1E0E491E0931F03C3E0B9CE1092C4
:100AC000A0001092A1008091A10088608093A100F5
:100AD0008091A10081608093A100E5ECF1E0E491B8
:100AE000F0E0EE0FFF1FEC55FE4F85919491E5E687
:100AF000F1E0E491E0931E039BCE60E072E18AE7AF
:100B000090E0A30198010E942D1169017A0191E002
:100B1000C91AD108E108F10891E0C114D10481E0BB
:100B2000E806F10484F068E478EE81E090E0A30147
:100B300098010E942D1169017A0191E0C91AD1082A
:100B4000E108F10893E0C13039F480918100887F99
:100B5000892B80938100ADC0C33039F4809191001E
:100B6000887F892B80939100A4C0C43039F4809190
:100B7000A100887F892B8093A1009BC0C53009F01C
:100B800098C080912101887F892B8093210191C099
:100B9000C43009F447C0A4F1C53009F034CED09276
:100BA0002901C09228012093250330932603409306
:100BB0002703509328038091730082608093730011
:100BC00022CEC7BC2093390330933A0340933B03B2
:100BD00050933C0380916E00826080936E0013CE30
:100BE000C092B30020933103309332034093330318
:100BF000509334038091700082608093700003CE24
:100C0000D0929900C092980020932D0330932E0328
:100C100040932F0350933003809171008260809342
:100C20007100F1CDD092A900C092A80020932903B1
:100C300030932A0340932B0350932C03809172002E
:100C4000826080937200DFCD730162018AE0F594C7
:100C5000E794D794C7948A95D1F791E0C91AD1083F
:100C6000E108F10895E021C084E040CE93E08FEFE9
:100C7000C816D104E104F104C1F0BCF062E17AE7E6
:100C800080E090E0A50194010E942D1169017A0194
:100C900091E0C91AD108E108F1088FEFC816D10414
:100CA000E104F10409F084F694E085B5887F892B8E
:100CB00085BD9801220F331FA4EFB1E00E947B1184
:100CC00028EE33E040E050E00E945911C23009F4B0
:100CD00087CF0CF05DCFCC2309F473CFC13009F07E
:100CE00092CDD0928900C092880020933503309332
:100CF0003603409337035093380380916F0082602E
:100D000080936F0080CD862F642F2ACD3FB7F89453
:100D10008091150390911603A0911703B0911803C9
:100D200026B5A89B05C02F3F19F00196A11DB11D46
:100D30003FBFBA2FA92F982F8827BC01CD01620F82
:100D4000711D811D911D42E0660F771F881F991F3D
:100D50004A95D1F708958F929F92AF92BF92CF920A
:100D6000DF92EF92FF926B017C01D0DF4B015C01BF
:100D7000C114D104E104F104B1F0C8DF68197909A4
:100D80008A099B09683E73408105910588F321E03B
:100D9000C21AD108E108F10888EE880E83E0981E97
:100DA000A11CB11CE5CFFF90EF90DF90CF90BF90DA
:100DB000AF909F908F9008952FB7F8946091110392
:100DC0007091120380911303909114032FBF089523
:100DD0000F931F93CF93DF93C82FD62F86E0C89F22
:100DE000F0011124E559FB4F11A2878D90A18130AC
:100DF0009105E1F058F082309105D1F1039709F4A3
:100E00003CC0DF91CF911F910F9108956623C9F3E4
:100E100061E070E08C2F90DACFDF6093C3047093B1
:100E2000C4048093C5049093C604EBCFC5DF009142
:100E3000C3041091C4042091C5043091C604AB01D1
:100E4000BC01401B510B620B730B8091D504909138
:100E5000D604B0E0A0E084179507A607B70740F4D2
:100E600062E070E08C2FDF91CF911F910F9164CAE7
:100E700063E070E0D111C5CFF5CF70E060E0F2CF54
:100E80006F927F928F929F92AF92BF92CF92DF929A
:100E9000EF92FF920F931F93CF93DF9381E08093A4
:100EA000D7048ADF0091C7041091C8042091C904B7
:100EB0003091CA04AB01BC01401B510B620B730B98
:100EC0008091D3049091D404B0E0A0E084179507FA
:100ED000A607B70708F00CC1C0E08091D104C8177D
:100EE00058F4E091CD04F091CE04EC0FF11D62E0D6
:100EF000808136DCCF5FF1CF712C812C912C540195
:100F000083948091D204781608F05AC0072D10E01F
:100F1000E091CF04F091D004E00FF11F61E08081F7
:100F20001FDCE091CF04F091D004E00FF11F60E0EE
:100F30008081E6DBD501C401072C04C0880F991F0E
:100F4000AA1FBB1F0A94D2F76C017C01E094F094B5
:100F5000612C8091D1046816F0F4C62DD0E0E091A8
:100F6000CD04F091CE04EC0FFD1F80819FDB249611
:100F7000CC0FDD1FC559DB4F892B41F48881998146
:100F80008C299D29998388836394E3CF88819981F3
:100F90008E219F21F7CFE091CF04F091D004E00F94
:100FA000F11F61E08081ACDB8091CF049091D0048F
:100FB000080F191F60E0F8018081D2DB7394A1CF84
:100FC000CBE6D4E0FE018FEF9FEF278D30A1232BDE
:100FD00021F4148E968F858F11A2369624E0E73A7D
:100FE000F20799F7F12C96E0D92E8091D104F816EA
:100FF00008F04FC0E12C0F2D10E0000F111F0D580D
:101000001B4F2091D204E21608F041C0F801608124
:1010100071810E2C02C0769567950A94E2F7F29ED4
:10102000900111242E0D311DEBE6F4E080E0458D9A
:10103000568D2417350709F45FC08F5F36968A30C6
:10104000B1F760FF22C0EBE6F4E090E080E0448D71
:10105000411116C0E091CB04F091CC04E20FF31FD4
:101060004081D89EF001D99EF00D1124E559FB4F27
:10107000448F368F258F10A2178E61E0A9DE05C040
:10108000019636968A30910511F7E394BACFF3941E
:10109000ACCF10E089A18111182F2696F4E0C73A51
:1010A000DF07C1F789DE6093C7047093C80480939B
:1010B000C9049093CA041123D9F080918C04882329
:1010C000B9F080918A0490918B04019789F4809102
:1010D0008704DF91CF911F910F91FF90EF90DF90E8
:1010E000CF90BF90AF909F908F907F906F9008951A
:1010F0001092D70480E0EDCF6170C0CFAF92BF9265
:10110000CF92DF92EF92FF920F931F93CF93DF93D3
:101110006B017A01EC01C45FDC4F28813CE0389F11
:101120008001399F100D1124A0906A04B12C27FF73
:101130001FC0FB011182108288818F5F88838881A4
:101140009801280F311D87FD3A95F6012A153B05B8
:101150001CF488818C30BCF18081918104968034AC
:101160009C4908F471C0F6018081918104966EC09B
:1011700088819801280F311D87FD3A952A153B0576
:10118000DCF68881A801480F511D87FD5A95FA01A8
:10119000EE0FFF1FE40FF51FE652FC4F808186FF24
:1011A000CBCF8881F801E80FF11D87FDFA95CF01BB
:1011B000EE0FFF1FE80FF91FE652FC4F808160E041
:1011C0008F739EDAB9CF808191812881A801420F67
:1011D000511D27FD5A959A01FA01EE0FFF1FE20FEC
:1011E000F31FE652FC4F21813281820F931FF701DA
:1011F0009183808388819801280F311D87FD3A955E
:10120000F901EE0FFF1FE20FF31FE652FC4F808142
:1012100086FF21C08881080F111D87FD1A95F801EE
:10122000EE0FFF1FE00FF11FE652FC4F808161E0DF
:101230008F73DF91CF911F910F91FF90EF90DF900F
:10124000CF90BF90AF905CCA80E49CE9F701918396
:1012500080838FEF8883DF91CF911F910F91FF9053
:10126000EF90DF90CF90BF90AF900895089590E0F9
:1012700080E00895CF93DF93EC0160E08E8140DA47
:1012800061E08E813DDA60E08E813ADA8BE891E0B0
:101290000197F1F7DF91CF910895CF92DF92EF920E
:1012A000FF920F931F93CF93DF936C017C0187E034
:1012B000E80EF11CD0E0C0E0062F10E0B8010C2EC3
:1012C00002C0759567950A94E2F76170F701819104
:1012D0007F0116DA2196C430D10581F7C601DF916E
:1012E000CF911F910F91FF90EF90DF90CF90C2CFE1
:1012F000CF92DF92EF92FF920F931F93CF93DF93E2
:10130000EC01F62E642F8C81FBD98D818F3F11F07B
:1013100060E0F6D90F2D10E08F8584FF23C06E01A9
:1013200087E0C80ED11CF12CE12CB8010E2C02C0B4
:10133000759567950A94E2F76170F60181916F01E6
:10134000DFD9FFEFEF1AFF0A88E0E816F10469F72A
:10135000CE01DF91CF911F910F91FF90EF90DF9021
:10136000CF9088CFB80184E0759567958A95E1F7AD
:10137000CE0193DF6F2DCE01DF91CF911F910F91A1
:10138000FF90EF90DF90CF9088CF40E0682F8AEDFC
:1013900094E0AECF81E0F9DF8BE39FE10197F1F7B5
:1013A0000895CF93DF93823029F49091E9049860F7
:1013B0009093E9048093ED041092EE0480E480930E
:1013C000EF0480E18093F00480E58093F10461E014
:1013D0008091DE04C5D98091DF048F3F11F061E078
:1013E000BFD961E08091E004BBD9CAEDD4E09E0191
:1013F0002A5D34408091E90484FD0AC084E090E0D5
:101400002196281739073CF461E08E81A9D9EFCFE6
:1014100088E090E0F5CF8BE39DE00197F1F760E085
:101420008091DE046DD960E08091E00469D98091FB
:10143000DF048F3F11F060E063D98091E90484FDFF
:101440002CC063E08AED94E028DFCBE4D6E4CE0143
:101450000197F1F763E08AED94E01FDF2197F1F740
:1014600063E08AED94E019DF83E592E00197F1F7FC
:1014700062E08AED94E011DF8091E904806285DF0B
:1014800084E08093EA048CE080DF84DF82E0809354
:10149000EB0486E0DF91CF9178CF806276DF8BE43A
:1014A00096E40197F1F78091E90480626EDF83E5AD
:1014B00092E00197F1F78091E904806266DFDCCF6A
:1014C0009091ED04691710F06FEF690FE62FF0E0CF
:1014D000E652FB4F9489890F806857CF41E008DFBF
:1014E00081E090E00895FC0101900020E9F7319738
:1014F000AF01481B590BBC018AED94E00C94BF016D
:10150000CF92DF92EF92FF92CF936C0161E082E085
:10151000D7DF83E492E0E7DF61E083E0D1DFCAE078
:101520000D2C000CEE08FF08C701B60114DC80E5A5
:1015300092E0D9DFC150C1F7CF91FF90EF90DF90DB
:10154000CF90089580ED97E047D924DF60E080E0F8
:10155000B7DF82E592E0C7DF8AE590E00E943701BD
:1015600061E087E3CDD860E086E3CAD8109200023C
:10157000089584E690E030D90DDF60E080E0A0DFE0
:1015800087E592E0B0DF84E190E00E94370161E0FE
:1015900086E3B6D860E087E3B3D881E080930002A9
:1015A0000895FC0180819181009709F063C7089537
:1015B000CF93DF93EC01A881B981EB01E881F98138
:1015C0001097F1F03097B1F4EC018C819D81892B5B
:1015D000C9F08C9190E00BC0DB0114968D919C9129
:1015E000892B81F0808190E0919581959109DF911F
:1015F000CF910895BF01CD01DF91CF910C94A81335
:10160000309751F790E080E0F2CF0F931F93CF9384
:10161000DF93EC0188819981009759F02A813B8101
:101620002617370730F081E0DF91CF911F910F919E
:1016300008958B016F5F7F4FA6D7009759F099836C
:1016400088831B830A832C813D81232B61F7FC0156
:101650001082E9CF80E0E8CFEF92FF920F931F93C3
:10166000CF93DF93EC017B018A01BA01CEDF2881A1
:101670003981811113C02115310511F0C901FAD644
:10168000198218821D821C821B821A82CE01DF9170
:10169000CF911F910F91FF90EF9008951D830C83C0
:1016A000B701C9010E94B113F1CFEF92FF920F93DE
:1016B0001F93CF93DF931F921F92CDB7DEB78C019C
:1016C00061E085E0FDDE8DE592E00DDF61E086E022
:1016D000F7DEF801118210821382128215821482C1
:1016E00050E040E06CE872E0C801B6DFF8018481A8
:1016F0009581049740F5C4DBF82E80ED8F0D8A307C
:10170000A8F741E06AE28AED94E0F2DDF9821A82FC
:10171000F801E480F580FFEFEF1AFF0AB701C80176
:1017200074DF882319F3F801208131818481958148
:10173000BE016F5F7F4F820F931F0E94B113F801AC
:10174000F582E482D3CFC8010F900F90DF91CF9143
:101750001F910F91FF90EF9008951F920F920FB677
:101760000F9211240BB60F922F933F934F935F93D9
:101770006F937F938F939F93AF93BF93EF93FF9359
:101780008091310390913203A0913303B0913403DF
:10179000892B8A2B8B2BE1F190912003E09121037F
:1017A000F091220380818927808380913103909179
:1017B0003203A0913303B0913403181619061A06A8
:1017C0001B069CF48091310390913203A091330366
:1017D000B09134030197A109B1098093310390932B
:1017E0003203A0933303B0933403FF91EF91BF9181
:1017F000AF919F918F917F916F915F914F913F91A9
:101800002F910F900BBE0F900FBE0F901F90189549
:1018100080910102E4E0F2E0E4919FEF90930102F5
:10182000E230E9F040F4EE2389F0E13091F060E03D
:101830000E948003DACFE43049F110F1E530B9F7C6
:10184000909173009D7F90937300F1CF10926E0082
:10185000EECF90916F009D7F90936F00E8CF9091B5
:1018600070009D7F9093700091E09093B0009091F4
:10187000B100987F94609093B1001092B300D7CFDD
:10188000909171009D7F90937100D1CF90917200E3
:101890009D7F90937200CBCF1F920F920FB60F9245
:1018A00011240BB60F922F933F934F935F936F9337
:1018B0007F938F939F93AF93BF93EF93FF938DE3AA
:1018C00093E00E943202FF91EF91BF91AF919F91FF
:1018D0008F917F916F915F914F913F912F910F90D9
:1018E0000BBE0F900FBE0F901F9018951F920F9276
:1018F0000FB60F9211240BB60F922F938F939F93D5
:10190000EF93FF93E0914D03F0914E038081E091BE
:101910005303F091540382FD1DC0908180915603C2
:101920008F5F8F7320915703821741F0E091560328
:10193000F0E0E35CFC4F958F80935603FF91EF91AD
:101940009F918F912F910F900BBE0F900FBE0F9014
:101950001F9018958081F2CF1F920F920FB60F92B1
:1019600011242F933F938F939F93AF93BF938091B5
:10197000110390911203A0911303B09114033091BD
:10198000100323E0230F2D3758F50196A11DB11D3B
:10199000209310038093110390931203A0931303D9
:1019A000B09314038091150390911603A09117032F
:1019B000B09118030196A11DB11D8093150390935A
:1019C0001603A0931703B0931803BF91AF919F9193
:1019D0008F913F912F910F900FBE0F901F901895F0
:1019E00026E8230F0296A11DB11DD2CF1F920F92A0
:1019F0000FB60F9211240BB60F922F933F934F9374
:101A00005F936F937F938F939F93AF93BF93EF9366
:101A1000FF9348E251E064E271E090E080E06EDB29
:101A2000FF91EF91BF91AF919F918F917F916F91B6
:101A30005F914F913F912F910F900BBE0F900FBE72
:101A40000F901F9018951F920F920FB60F921124AE
:101A50000BB60F922F933F934F935F936F937F93A8
:101A60008F939F93AF93BF93EF93FF9348EA50E018
:101A700064EA70E083E090E041DBFF91EF91BF9179
:101A8000AF919F918F917F916F915F914F913F9116
:101A90002F910F900BBE0F900FBE0F901F901895B7
:101AA0001F920F920FB60F9211240BB60F922F9325
:101AB0003F934F935F936F937F938F939F93AF93D6
:101AC000BF93EF93FF9348E950E064E970E082E050
:101AD00090E014DBFF91EF91BF91AF919F918F91B7
:101AE0007F916F915F914F913F912F910F900BBE1E
:101AF0000F900FBE0F901F9018951F920F920FB668
:101B00000F9211240BB60F922F933F934F935F9335
:101B10006F937F938F939F93AF93BF93EF93FF93B5
:101B200048E850E064E870E081E090E0E7DAFF9197
:101B3000EF91BF91AF919F918F917F916F915F9145
:101B40004F913F912F910F900BBE0F900FBE0F90B2
:101B50001F9018951092400310923F0388EE93E077
:101B6000A0E0B0E08093410390934203A09343032D
:101B7000B09344038FE192E090933E0380933D0342
:101B800085EC90E090934A038093490384EC90E0C5
:101B900090934C0380934B0380EC90E090934E0322
:101BA00080934D0381EC90E09093500380934F031A
:101BB00082EC90E0909352038093510386EC90E086
:101BC000909354038093530310925603109257033B
:101BD00010925803109259031092F6041092F504D3
:101BE0001092F8041092F7041092FA041092F9047B
:101BF00044E050E064E672E085EF94E02DDD8091F2
:101C00006A04803308F089C091E0980F90936A04C9
:101C10008093F20490E0FC01EE0FFF1FE80FF91F24
:101C2000E652FC4F88EB9BE0928381831092DD04A7
:101C30001092DC048BE392E09093DB048093DA044F
:101C40008DE08093DE048FEF8093DF048CE080933F
:101C5000E00488E08093E10489E08093E2048AE074
:101C60008093E3048BE08093E4041092E5041092E7
:101C7000E6041092E7041092E8041092E90481E06F
:101C800090DB10926D041092710410927004109207
:101C9000720481E392E090936C0480936B04E7E814
:101CA000F4E01082148213821582369684E0E33CBD
:101CB000F807B9F785E092E09093CE048093CD04C5
:101CC00082E092E09093D0048093CF0484E08093EC
:101CD000D10483E08093D20489E092E09093CC0415
:101CE0008093CB048AE090E09093D4048093D30453
:101CF00084EF91E09093D6048093D5041092D90498
:101D00001092D8041092C7041092C8041092C9040B
:101D10001092CA041092D70408958FEF8093F204B2
:101D200085CFCF93DF93CDB7DEB7A7970FB6F894E3
:101D3000DEBF0FBECDBF789484B5826084BD84B50C
:101D4000816084BD85B5826085BD85B5816085BDB6
:101D500080916E00816080936E001092810080916E
:101D600081008260809381008091810081608093F6
:101D70008100809180008160809380008091B1001B
:101D800084608093B1008091B00081608093B00046
:101D90008091910082608093910080919100816098
:101DA0008093910080919000816080939000809159
:101DB000A10082608093A1008091A1008160809346
:101DC000A1008091A00081608093A00080912101FA
:101DD00082608093210180912101816080932101A3
:101DE0008091200181608093200180917A0084603D
:101DF00080937A0080917A00826080937A0080914B
:101E00007A00816080937A0080917A008068809364
:101E10007A001092C10061E087E00E94B00361E0A7
:101E200086E30E94B00361E087E30E94B00382E092
:101E3000B8DA8091F204803308F053C061E082E0A8
:101E40000E94B0038091F204282F30E0F901EE0FD8
:101E5000FF1FE20FF31FE652FC4F9081907C9260CF
:101E600090839EE89093F30494E69093F4042CE01E
:101E7000622F50D2829FB001112430E020E0AB01EC
:101E8000420F531FFA01EE0FFF1FE40FF51FE6523A
:101E9000FC4F908196FD17C02F5F3F4F2C303105CE
:101EA00071F7813009F0B7C01092800082E0809312
:101EB00081001092850010928400B19A80916F0089
:101EC000826080936F00E091F2048E2F90E0FC011D
:101ED000EE0FFF1FE80FF91FE652FC4F8081806470
:101EE0008083E0914D03F0914E0382E08083E09186
:101EF0004903F0914A031082E0914B03F0914C03A7
:101F000080E1808310925503E0915103F0915203D8
:101F100086E08083E0914F03F091500380818061DF
:101F20008083E0914F03F09150038081886080832B
:101F3000E0914F03F0915003808180688083E091AD
:101F40004F03F091500380818F7D80838091000248
:101F5000882309F48CC00DDB60E080E0B1DA89E60B
:101F600092E0C1DA60E080E0ABDA82E792E0BBDACF
:101F700088EEC82E83E0D82EE12CF12C9AE0892E31
:101F8000912CA12CB12C80910002882309F47CC0F3
:101F900001DA60E080E094DA8EE792E0A4DACE0124
:101FA000829683DB1A8219821C821B821E821D820A
:101FB0006AA17BA16115710529F04EA15FA1CE0137
:101FC00001964ADB2D813E818091F9049091FA04BB
:101FD0002817390741F465EF74E0CE010196E8DA7D
:101FE00011E0892B09F010E0CE010196DADA88ECD5
:101FF00090E086DA112309F43CC0CCD960E080E09F
:102000005FDA8DE892E06FDA9DDACE018296C9DA66
:102010000E94BF02B8CF823061F41092900080938A
:102020009100109295001092940088BB80937100EB
:102030004ACF833069F41092A00082E08093A1001F
:102040001092A5001092A40089BB809372003BCF30
:10205000811139CF1092200182E0809321011092EA
:102060002501109224018ABB809373002CCF6ADA79
:1020700073CF90D960E080E023DA87E992E033DA29
:1020800084EF91E03DDAC1CF85D960E080E018DAD5
:1020900086EA92E028DA61E080E012DA80EB92E0F2
:1020A00022DA0E944007782E0E94DC066093190312
:1020B00070931A0380931B0390931C030E94DC0609
:1020C0000091190310911A0320911B0330911C03F6
:1020D000601B710B820B930B613177428105910577
:1020E00008F041C081E3781609F487C0E2E37E1668
:1020F00009F43CC00E944007782E61E08EE0E0D9F0
:102100000E94DC060091190310911A0320911B0311
:1021100030911C03601B710B820B930BA70196017E
:10212000C8D019A28E010F5D1F4FCA01B901A501C8
:102130009401BFD0605DF80162938F0121153105D4
:102140004105510591F7309709F4B8CF019000206F
:10215000E9F73197AF01401B510BB8018AED94E0CC
:102160000E94BF01ABCFF2E37F1247C013D960E0FA
:1021700080E0A6D98EEB92E0B6D9CE01829695DAB0
:1021800009D960E080E09CD98EEC92E0ACD9CE0118
:1021900001968BDA0EA11FA18D819E810817190768
:1021A00009F04BC0BE016F5F7F4FCE01829600DA0F
:1021B000892B09F042C06AA17BA16115710549F123
:1021C000A80185EF94E048DAE5D860E080E078D9AE
:1021D0008FED92E088D961E080E072D98BEF92E0D8
:1021E00082D960ED77E080E090E00E94AB06CE01FE
:1021F0000196D7D9CE018296D4D9CCD860E080E0C0
:102200005FD984E093E06FD9B4D984E690E078D9BF
:10221000FFCE8091F5049091F604009709F02AD141
:102220001092F6041092F5041092FA041092F90438
:102230001092F8041092F704C7CFACD860E081E0A8
:102240003FD98AEE92E04FD961E080E039D988EF3A
:1022500092E0C6CF85EF94E0A4C9052E97FB16F453
:1022600000940FD057FD05D024D007FC02D046F4CF
:1022700008C050954095309521953F4F4F4F5F4F87
:10228000089590958095709561957F4F8F4F9F4FE2
:10229000089531D0A59F900DB49F900DA49F800DFF
:1022A000911D11240895B7FFF4CFF3DF821B930B28
:1022B0000895A1E21A2EAA1BBB1BFD010DC0AA1F87
:1022C000BB1FEE1FFF1FA217B307E407F50720F09F
:1022D000A21BB30BE40BF50B661F771F881F991F1A
:1022E0001A9469F760957095809590959B01AC0163
:1022F000BD01CF010895A29FB001B39FC001A39F6C
:10230000700D811D1124911DB29F700D811D11242E
:10231000911D0895991B79E004C0991F961708F044
:10232000961B881F7A95C9F780950895EE0FFF1FB9
:10233000881F8BBF0790F691E02D19940F931F9380
:10234000CF93DF938230910510F482E090E0E0912A
:10235000FD04F091FE0430E020E0B0E0A0E0309712
:1023600099F42115310509F44AC0281B390B243092
:102370003105D8F58A819B816115710589F1FB01D1
:1023800093838283FE0111C04081518102811381B8
:1023900048175907E0F04817590799F4109761F06A
:1023A00012960C93129713961C933296CF01DF91DD
:1023B000CF911F910F9108950093FD041093FE0497
:1023C000F4CF2115310551F04217530738F0A90118
:1023D000DB019A01BD01DF01F801C1CFEF01F9CFA7
:1023E0009093FE048093FD04CDCFFE01E20FF31F16
:1023F000819391932250310939832883D7CF20913B
:10240000FB043091FC04232B41F4209117023091FE
:1024100018023093FC042093FB04209115023091A4
:1024200016022115310541F42DB73EB7409119022E
:1024300050911A02241B350BE091FB04F091FC042F
:10244000E217F307A0F42E1B3F0B2817390778F08B
:10245000AC014E5F5F4F2417350748F04E0F5F1FEA
:102460005093FC044093FB04819391939FCFF0E041
:10247000E0E09CCFCF93DF930097E9F0FC01329727
:1024800013821282A091FD04B091FE04ED0130E0B0
:1024900020E01097A1F420813181820F931F2091B9
:1024A000FB043091FC042817390709F061C0F09350
:1024B000FC04E093FB04DF91CF910895EA01CE176D
:1024C000DF07E8F54A815B819E0141155105B1F7AF
:1024D000E901FB83EA8349915991C40FD51FEC1799
:1024E000FD0761F4808191810296840F951FE901B7
:1024F00099838883828193819B838A83F0E0E0E0E3
:1025000012968D919C9113970097B9F52D913C915E
:102510001197CD010296820F931F2091FB043091F9
:10252000FC042817390739F6309751F51092FE044C
:102530001092FD04B093FC04A093FB04BCCFD383A2
:10254000C28340815181840F951FC817D90761F458
:102550004E5F5F4F88819981480F591F5183408397
:102560008A819B81938382832115310509F0B0CF45
:10257000F093FE04E093FD049ECFFD01DC01C0CF8B
:1025800013821282D7CF4F925F926F927F928F9277
:102590009F92AF92BF92CF92DF92EF92FF920F93F2
:1025A0001F93CF93DF938C01009791F4CB01DF91C0
:1025B000CF911F910F91FF90EF90DF90CF90BF9040
:1025C000AF909F908F907F906F905F904F90B6CE1E
:1025D000FC01E60FF71F9C0122503109E217F307B7
:1025E00008F4AAC0D901CD91DC911197C617D7077D
:1025F00018F1C530D10570F0CE0104978617970702
:1026000048F0C61BD70B2297C193D1936D937C934F
:10261000CF0130DFC801DF91CF911F910F91FF9063
:10262000EF90DF90CF90BF90AF909F908F907F9072
:102630006F905F904F9008955B01AC1ABD0A4C01FA
:102640008C0E9D1EA091FD04B091FE04512C412CD6
:10265000F12CE12C109731F58091FB049091FC0452
:102660008815990509F05CC04616570608F058C051
:102670008091150290911602009741F48DB79EB794
:102680004091190250911A02841B950BE817F90723
:1026900008F052C0F093FC04E093FB04F90171834D
:1026A0006083B8CF8D919C91119712966C90129780
:1026B00013967C901397A815B90559F56C0142E063
:1026C000C40ED11CCA14DB0420F1AC014A195B0909
:1026D000DA011296159780F06282738251834083EB
:1026E000D9016D937C93E114F10471F0D701139635
:1026F000FC93EE9312978ECF22968C0F9D1FF901BB
:1027000091838083F301EFCFF093FE04E093FD0407
:1027100081CF4816590608F42C017D01D3019ACFC8
:10272000CB010CDE7C01009739F0AE01B80107D077
:10273000C801A0DE87016ECF10E000E06BCFFB0187
:10274000DC0102C001900D9241505040D8F708952D
:10275000FB01DC018D91019080190110D9F3990BD7
:102760000895FB01DC0101900D920020E1F708952E
:1027700011E0C4E0D1E000E005C0802FFE01D6DD0D
:102780002196011DC530D10780E00807B1F7F89404
:02279000FFCF79
:1027920001FF161718191A1B1C313233343536371C
:1027A20038392A30230000FF048000000000005462
:1027B20002BF01EC01A0021D02FB010F020000009A
:1027C200008306AD037E03000000006E0ABF0137DE
:1027D2000936095B2E2E2E2E2E2E2E2E2E2E5D002B
:1027E2003D004F70656E00436C6F7365005B5F5F09
:1027F2005F5F5D00313233340057656C636F6D6526
:102802002100456E74657220706173733A00205323
:10281200616665204C6F636B6564212000556E6CA8
:102822006F636B6564210041636365737320446564
:102832006E696564210031202D3E206C6F636B0050
:1028420032202D3E206E657720636F646500456EF1
:10285200746572206E657720636F64653A00436F1A
:102862006E6669726D206E657720636F64650043E2
:102872006F6465206D6174636800436F6465206DE9
:1028820069736D61746368006E6F206E6577207086
:0C289200617373004C6F636B6564210080
:00000001FF
